:020000040800F2
:10000000280C0020B50100087D3F0008B92D00082C
:10001000793F0008750F00087D44000800000000CB
:10002000000000000000000000000000DD3F0008AC
:10003000B50F000800000000AD3F000811400008A7
:10004000CF010008CF010008CF010008CF01000850
:10005000CF010008CF010008CF010008CF01000840
:10006000CF010008CF010008CF010008CF01000830
:10007000CF010008CF010008CF010008CF01000820
:10008000790F0008CF010008CF010008CF01000858
:10009000CF010008CF010008CF010008CF01000800
:1000A000CF010008CF010008CF010008CF010008F0
:1000B000CF010008CF010008CF010008BD2D0008C6
:1000C000CF010008CF010008CF010008CF010008D0
:1000D000CF010008CF010008CF010008CF010008C0
:1000E000CF010008CF010008CF01000800F002F89E
:1000F00000F050F80AA090E8000C82448344AAF172
:100100000107DA4501D100F045F8AFF2090EBAE86F
:100110000F0013F0010F18BFFB1A43F0010318473B
:10012000BC7C0000DC7C0000103A24BF78C878C199
:10013000FAD8520724BF30C830C144BF04680C60ED
:10014000704700000023002400250026103A28BF35
:1001500078C1FBD8520728BF30C148BF0B60704739
:10016000662906F06880652906F06580672906F033
:100170006280612906F06180002070471FB500F0A1
:100180000DFD04000020002105F0A8F8E0601FBD6F
:1001900010B510BD00F002FE1146FFF7EFFF04F0AE
:1001A000A9F900F020FE03B4FFF7F2FF03BC00F052
:1001B00063FE00000948804709480047FEE7FEE764
:1001C000FEE7FEE7FEE7FEE7FEE7FEE7FEE7FEE707
:1001D00004480549054A064B70470000E141000804
:1001E000ED00000828060020280C00202808002028
:1001F000280800200FB41CB5074B06AA7B446946AB
:100200000090059800F0B1FC0020694600F0C0FCA9
:100210001CBC5DF814FB00009109000070B5044699
:1002200085690068C10601D5302600E02026C00798
:1002300007D070BDD4E9012130469047206A401CA8
:1002400020626D1EF6D570BD70B5044685690078D4
:10025000C00707D170BDD4E9012120209047206A52
:10026000401C20626D1EF6D570BD00002DE9F05FC8
:10027000894604464FF0000ADFF874B1FB44C0F829
:1002800020A02046E1688847002874D0252806D0A1
:10029000D4E901219047206A401C2062F1E7002642
:1002A0005F462046E16888472028054607DB312D58
:1002B00005D2781910F8200C08B10643F1E7B00711
:1002C00001D526F00406C4F81CA00027C4F818A025
:1002D0002A2D09D0284604F0F9FF38B304EB87082B
:1002E000303DC8F8185019E059F8041B204604EBBB
:1002F00087029161E1688847012F054618D1E069BE
:10030000002820DA26F020061DE0D8F8180000EBBF
:10031000800005EB40003038C8F818002046E1683E
:100320008847054604F0D2FF0028EED1012F0AD0FD
:100330002E2D08D12046E16888477F1C0546022FF4
:1003400046F02006C4DBA069002803DA404246F0EC
:100350000106A061F00701D026F010066C2D0BD02D
:10036000682D09D04C2D39D06A2D35D0742D35D05B
:100370007A2D33D016E038E0E1682F4620468847D2
:10038000B842054609D16C2F26D04FF48060E16851
:10039000064320468847054604E06C2F1AD04FF4E8
:1003A000807006430DB3A5F14100192802D820350D
:1003B00046F400664A462946204626604E46FFF728
:1003C000CFFE80B101280BD0F61D26F0070000F10A
:1003D000080956E74020E4E78020D8E70020D6E768
:1003E00006F104094DE7284652E7206ABDE8F09F70
:1003F000BE5F00004FF0000200B5134694469646DB
:10040000203922BFA0E80C50A0E80C50B1F1200127
:10041000BFF4F7AF090728BFA0E80C5048BF0CC0D5
:100420005DF804EB890028BF40F8042B08BF704733
:1004300048BF20F8022B11F0804F18BF00F8012BA5
:1004400070477047704770472DE9FF4F0C461E46B6
:100450004FF0FF378BB0D2E90001DDF860800A90E1
:100460008A46C1F30A5505B93D46002108464FF0BA
:100470000000BAF1000F00F4400005DA00EB800044
:100480004FF4400101EA50004FEA9059B9F1010FD1
:1004900000DDB9460A9850EA4A000ED044F61050E2
:1004A000A5F2FF3545432F14B8F1000F1ED0754259
:1004B000291E1EDDC9F100021CE0B8F1010F4FF04A
:1004C000000001D0302103E0F24305E02154401C3C
:1004D000B042FBDB30460022002121540B99C1F8C9
:1004E0000880C1E900200FB0BDE8F08FBD1B6D1C76
:1004F000DEE74A4600DA694206A800F0D9FB06ABFF
:1005000093E8070003AB83E8070050460A9904F01C
:1005100000FB8DE80700A0F500501F3800900398FD
:10052000002D0ADD42F21F014A460844002303A9B8
:100530000390684604F06AFD09E0A0F500504A46C1
:100540001F38002303A90390684604F074FD8DE86A
:1005500007000004000C03D04FF0FF30410800E01A
:100560001046B8F1000F03D00022009215461EE09D
:10057000751E05D400F016FB303262556D1EF9D59C
:10058000B3460122084302D000227F1C04E02078F9
:10059000302801D100227F1E002A099784D01DE057
:1005A000112D07DA00F0FEFA303262556D1C50EA68
:1005B0000102F5D1084302D00098C8B10EE0002135
:1005C000681E05E0235C625C63542254401E491C93
:1005D0008142F7DBAB46A81B401E0990002004F8BF
:1005E0000B000B98099AC0F80880C0E9002B7AE745
:1005F00011264FF0000857E72DE9F04F88460446D2
:10060000D21D22F0070191B0D1E90001CDE90A0124
:1006100004F048FE02460B98C00F01D02D2007E0E1
:100620002068810701D52B2002E0202101EAC000CB
:10063000032A099001D0072A05DB034641462046DC
:1006400000F0F6FA0BE12078800601D5E06900E0C1
:100650000620B8F1650F814606D0B8F1660F18D0B4
:10066000B8F1670F70D131E00020B9F1110F00909F
:1006700001DB112301E009F101030AAA01A90CA879
:10068000FFF7E2FEDDE90C70002609F10105834663
:1006900047E001204B4600904FF000470AAA01A90D
:1006A0000CA8FFF7D1FEDDE90DB00C995D460026E0
:1006B00010B909F101000D18B9EB050003D4C0F120
:1006C000FF3609F10105A5EB09002BE0B9F1010F97
:1006D00001DA4FF001090020B9F1110F00904846EE
:1006E00001DD112300E003460AAA01A90CA8FFF7C7
:1006F000ABFEDDE90C704D460026834620780007EE
:100700000AD4AB4500DA5D4601A8012D04DD41198C
:1007100011F8011C302907D04F4502DA17F1040FF8
:1007200004DA012082460FE06D1EEEE7002F02DCA6
:10073000ED1B3E4403E0781CA84200DD7D1CB81B85
:1007400000F1010A4FF000472078000703D4AA45C2
:1007500001DB4FF0FF3A0021B7F1004F0DF14308E4
:100760008DF8431024D002202B23002F01DA7F4282
:100770002D230A21021EA0F1010000DC5FB197FBCE
:10078000F1FC97FBF1F201FB1C7C17460CF1300CDD
:1007900008F801CDEEE7A8F10100037021880905F2
:1007A00001D5452100E06521A0F1010800F8011CF8
:1007B00009980FA9A1EB0807FF1D00B101204119FD
:1007C00001EBEA70A1693844081A401EA061207844
:1007D000C00602D42046FFF721FD099828B1D4E9CC
:1007E00001219047206A401C20622078C00622D553
:1007F0002046FFF713FD1EE0002E04DBB34502DDAB
:1008000001A8805D00E03020D4E901219047206AF2
:10081000401C2062761CAAF101005FEA000A0AD19E
:1008200000F0BCF9C0680168405CD4E90121904740
:10083000206A401C2062281EA5F10105DCDC07E0CF
:10084000D4E9012118F8010B9047206A401C20626E
:10085000381EA7F10107F3DC2046FFF7F5FC032063
:1008600011B041E62DE9F04F04460D46D21D22F0AD
:10087000070089B0D0E900974846394604F012FDD8
:100880000246F80F01D02D2307E02068810701D52B
:100890002B2302E0202101EAC0038DF820300BB1A8
:1008A000012000E00020032A824601D0072A04DB51
:1008B0002946204600F0BCF93FE12078800601D4AB
:1008C0000D2500E0E569C7F30A560D2D49DA002130
:1008D0004FEA175B08464FF00000002F00F440007D
:1008E00007DA00EB80004FF4400100EBD07001EA22
:1008F00060008115012901DD4FF0FF3100224FEA30
:10090000850CBCF1180F06D31346ACF118004FF05C
:100910008052C24003E04FF4801323FA0CF30CF131
:100920000C0CBCF1200F04D3ACF1200C09FA0CF034
:1009300001E007FA0CF000294FF0004801DD18B97A
:100940000FE00ED140450CD319EB02095F4121B9EC
:10095000404502D19F4329EA0209BBEB175F00D053
:10096000761C2088000502D57B48784402E07A484E
:100970007844193808AA302302F80A30037C0AF1B7
:100980000101002E0AF1020A53546A4602DC4FF0BC
:10099000300101E04FF031014FF001088DF80010F7
:1009A00002D0A6F2FF3603E059EA470100D06B4EB1
:1009B000002D02DC2178090704D54FF002082E2112
:1009C0008DF80110C44600210BE0C7F303433F013B
:1009D000C35C491C6D1E02F80830052908F10108A6
:1009E00001DA002DF1DC00210CE000EB1973491C49
:1009F0001B786D1E082902F808304FEA091908F122
:100A0000010801DA002DF0DC21688B0602D516E022
:100A1000A8F10108E04505DD02EB080313F8013CED
:100A2000302BF5D0B8F1000F09DD02EB080313F805
:100A3000013C2E2B03D1090701D4A8F10108002D98
:100A400005DD3E2102F808106D1E08F10108407C0A
:100A5000002E02F8080008F1010804DA2D20764281
:100A600002F8080002E02B2002F808000A214FF4E7
:100A70007A70864208F101080BDB96FBF0F3303305
:100A800002F8083096FBF0F308F1010800FB13664A
:100A900001E0642E0CDB642096FBF0F3303302F8A7
:100AA000083096FBF0F308F1010800FB136601E043
:100AB0000A2E06DB96FBF1F0303002F8080008F150
:100AC000010896FBF1F001FB1060303002F80800DD
:100AD000A16908F1010808EB050202EB0A00081AF7
:100AE000A0612078C00602D42046FFF797FB216A58
:100AF00008AE01EB0A00206204E0D4E9012116F8F7
:100B0000010B9047BAF1010AF7D22078C00602D54E
:100B10002046FFF783FB6E4609E016F8010B3E28DE
:100B20000FD0D4E901219047206A401C2062B8F11F
:100B30000108F2D22046FFF787FB09B00320BDE889
:100B4000F08F206A2844206203E0D4E9012130209C
:100B500090476D1EEBD3F8E7F458000002FCFFFF4E
:100B600001694A1C02610878704700B58FB0CDE971
:100B700001310021059105497944CDE90310114661
:100B80006846FFF773FB0FB000BD0000E5FFFFFFF5
:100B90000A6802F8010B0A607047000000487047BD
:100BA0004000002030B5B0F10A0271F100034FEAB5
:100BB000900E4EEA817EB0EB0E0061EB91014FEAA0
:100BC000101E4EEA017E10EB0E0041EB11114FEAB0
:100BD000102E4EEA016E10EB0E0041EB11214FEA90
:100BE000104E4EEA014E10EB0E0041EB1141401841
:100BF00041F100014FEAD00040EA41704FEAD101D3
:100C00004FEA810444EA907410EB800544EB010440
:100C10006D1944EB0404521BA3414FF0000348BF7D
:100C20000A3200D530BD401C41F1000130BD00004A
:100C30002DE9F0411F46044603260168072A01F406
:100C4000006004DB08B116A505E016A503E008B1B5
:100C500015A500E015A521F010002060A069C01EB8
:100C6000A0610FB1401EA0612046FFF7D7FA4FB137
:100C7000D4E9012138469047206A401C2062C01CFC
:100C8000206206E0206AFAE7D4E9012115F8010B99
:100C90009047761EF8D22046FFF7D6FABDE8F081DD
:100CA0004E414E006E616E00494E4600696E660010
:100CB0002DE9F047814616468AB0354878440DC87C
:100CC0008DE80D0032487844801C03AC0DC884E8E0
:100CD0000D0041F69B300844372190FBF1F290FB68
:100CE000F1F5A5F1800501FB12041B3C02D564421D
:100CF000012000E00020DFF898A080460027FA4499
:100D0000AAF1BE0A0EE0E0070AD03246684607EBB9
:100D1000470101230AEB810104F08DF98DE80700FA
:100D200064107F1C002CEED1194F7F44AE3F19E0B8
:100D3000E80715D007EB04100DF1180A90E80E0033
:100D40008AE80E00C068F04201D198190890324636
:100D5000012306A903A804F06EF903AB83E807009A
:100D60006D10641C002DE3D14FF00103324669463B
:100D7000B8F1000F03A802D004F048F901E004F034
:100D80005AF9C9E90001C9F808200AB0BDE8F0879E
:100D90003456000000487047200000207546FFF7D9
:100DA000F9FFAE4605006946534620F00700854628
:100DB00018B020B5FFF70CFABDE820404FF0000650
:100DC0004FF000074FF000084FF0000BAC46ACE8C6
:100DD000C009ACE8C009ACE8C009ACE8C00921F022
:100DE00007018D46704710B50446AFF300802046DA
:100DF000BDE81040FFF7D7B94FF0013C50F8042B85
:100E000051F8043B9A4221D1A2EB0C03934313EA1D
:100E1000CC1317D150F8042B51F8043B9A4215D14A
:100E2000A2EB0C03934313EACC130BD150F8042B21
:100E300051F8043B9A4209D1A2EB0C03934313EA05
:100E4000CC13DBD04FF00000704700BFD01A01BABE
:100E5000B1FA81F101F0180122FA01F0CB40DBB2C6
:100E6000C0B2C01AC1F120012CFA01F3D11A91438A
:100E700011EAC311E6D1704701491820ABBEFEE765
:100E80002600020070470000B0B504460068816883
:100E9000C90709D0816821F00101816000F0D4FD0B
:100EA00021688968C90701D10020B0BD054603E06B
:100EB00020688068C007F7D000F0C6FD401B0328FB
:100EC000F6D320688068C007F2D0A06A40F0100016
:100ED000A062E06A40F00100E0620120B0BD0000C5
:100EE000B0B582B004460020019021688A68D2071C
:100EF0003DD1886840F00100886040F21000C2F2E5
:100F0000000000684DF68361C4F21B31A0FB0101B3
:100F1000880C00BF0190019810B101980138F9E7E1
:100F200000F092FD21688968C9071CD1054603E0DD
:100F300020688068C00719D100F086FD401B032897
:100F4000F6D320688068C007F2D1A06A40F0100094
:100F5000A062E06A40F00100E062002084F8240012
:100F6000012002B0B0BD002002B0B0BD002002B030
:100F7000B0BD0000FEE7000080B540F24050C2F274
:100F8000000000F011FB80BDB0B5D0E900CED0E983
:100F90000F40012505FA00F060600846CCF80430E7
:100FA000BEF1100F04BF10460A46CCF80800CCF87A
:100FB0000C20B0BD70470000EFF3108072B600BF88
:100FC000FEE70000B0B581B00022009290F8242026
:100FD000012A01D1022179E04A680123062A80F81A
:100FE000243005D803686FF0040C03F1340E0AE0D6
:100FF00003680C2A87BF03F12C0E6FF0400C03F13D
:10100000300E6FF0220C02EB8202DEF800506244D8
:101010001F230C68934025EA030304FA02F21A43E3
:10102000CEF80020D1F800E002680EEB4E05102447
:10103000BEF1090F88BF1E3D88BF0C2452F804C0C2
:1010400007238968AB402CEA0303A94019431151D7
:101050002EF001014FF0000C10294FF0000133D1A8
:10106000016842F20042C4F20102914205D0816A55
:1010700041F020018162012126E09268120222D40F
:101080008A68BEF1100F42F400028A601BD140F260
:101090001001C2F2000109684DF68362C4F21B32EE
:1010A000A1FB0212910C01EB810149000091009912
:1010B00049B100BF009901390091009900294FF012
:1010C0000001F7D100E0002180F824C0084601B0FB
:1010D000B0BD00000068C06C70470000002804BF6D
:1010E00001207047F0B581B00746044657F8280F35
:1010F00030B90020E06284F82400204600F07AF83D
:101100002046FFF7C1FEA26AA16A002808BF12F0BC
:10111000100205D041F010010120396001B0F0BD8E
:1011200041F2021291430231A162E169D4E9013234
:1011300041EA0305511EB1FA81F149091346B2F59E
:10114000807F18BF0B02267D217B012E45EA410CD2
:1011500011D141B1A16A41F02001A162E16A41F0DF
:101160000101E16207E0A1694EF60006CFF6FF76C5
:1011700006EB41310B432168B2F5807F4E6826F4BF
:10118000694643EA06034B608B684FF2FD76CFF663
:10119000E17603EA060343EA0C038B6001D0012ADF
:1011A00006D122690023CFF6F07303EB025200E070
:1011B0000022CB6A23F470031A43CA62896840F69E
:1011C000FE62CFF61F721140614506D10021E16237
:1011D000A16A012262F301019FE7A06A40F01000BA
:1011E00020F00200A06254F82C0F40F00101012011
:1011F000274692E780B586B0014640F60000C4F26B
:101200000100096800F5E05291424FF00001CDE97C
:101210000411CDE9021101D006B080BD41F21801E0
:10122000C4F202010A6842F400720A600A6802F419
:1012300000720192019A0A6842F004020A60096889
:1012400001F004010191019901210291032103910F
:1012500002A900F0EFFA06B080BD00002DE9F041D0
:1012600082B000260D460446019600F0EDFB216891
:101270008A68D2053CD480464868C00503D4C86A51
:1012800010F4700F3ED040F21000C2F20000066869
:10129000022001F007F8216844F624130A69B6FB1E
:1012A000F0F0C2F292431A4206D1CA6844F62413FF
:1012B000C0F292031A423ED00A6942F29243C1F24E
:1012C00049231A4206D1CA6842F29243C0F2490346
:1012D0001A4242D00A6949F24923C0F224031A4251
:1012E0004FF0FC023AD1C968194208BF542235E0D8
:1012F000A06A40F02000A06284F82460012002B0BF
:10130000BDE8F08120680068800743D46E1C07E0C8
:101310002068006880075CD520680068800739D4A1
:10132000002EF9D0002DF3D000F08EFBA0EB0800CA
:10133000A842EDD8F0E70A6942F29243C1F249238C
:101340001A424FF0290209D1C96842F29243C0F211
:101350004903194208BF142200E05422019902FBFC
:1013600000F7B94216D26E1C09E000BF0198B842DE
:101370002FD30198013001900198B8420AD2002E73
:10138000F7D0002DF2D000F05FFBA0EB0800A842E0
:10139000ECD8EEE720686FF012010160A16A41F419
:1013A0000071A162806800F46020B0F5602F0CD15C
:1013B000207B50B9A06A20F48070A062A06AC004AB
:1013C00003D4A06A40F00100A062002002B0BDE892
:1013D000F081A06A40F00400A062002084F824009C
:1013E000032002B0BDE8F08110B5044690F8240057
:1013F000012804BF022010BD012084F824002046EB
:10140000FFF76EFD18B1002184F8241010BD42F2E0
:10141000044C2168A26AC4F2010C40F201339A43E1
:101420000CF57F7E02F580727145A26207D0A26A38
:1014300022F48012A2624A68520519D41DE0DCF839
:10144000002012F4702FF2D0A26A42F60003C4F218
:10145000010342F480129942A26205D042F2004296
:10146000C4F20102914208D1DCF80020520504D5F3
:10147000A26A012363F30D32A262A36A0022DB0495
:101480004FF0000344BFE36A23F00603E36284F8ED
:1014900024206FF002020A608A6802F46022B2F52A
:1014A000602F0BD1714504D08A6842F4A0028A6093
:1014B00010BDDCF8002012F4702FF5D08A6842F4D9
:1014C00080128A6010BD000010B5044690F8240018
:1014D000012804BF022010BD012084F8240020460A
:1014E000FFF7D2FC28B9A16A41F201129143013100
:1014F000A162002184F8241010BD000080B590F88E
:101500002110022923D10268116821F00E01116017
:101510002F211368C4F202018A4240F20401C4F28E
:10152000020123F00103136015DD3023C4F202032E
:101530009A421CD04423C4F202039A421AD0582380
:10154000C4F202039A421AD14FF480331FE00421FF
:101550008163012080BD0823C4F202039A420CD0AB
:101560001C23C4F202039A4209D110230FE04FF466
:1015700080730CE04FF4805309E0012307E001F190
:10158000680C4FF08073624508BF4FF480130B6006
:10159000416B4FF48072028401B18847002080BD06
:1015A00090F821007047000010B50168D0E90FCE17
:1015B000DCF800200B685C0726D5042404FA0EF43E
:1015C000144021D00A68920603D40A6822F004026B
:1015D0000A602F22C4F20202914240F20402C4F2D5
:1015E000020257DD3023C4F2020399426AD0442339
:1015F000C4F20203994268D05823C4F2020399420C
:1016000068D14FF480236DE09C0729D5022404FAA9
:101610000EF4144024D00A68920606D40A6822F018
:101620000A020A60012280F821202F22C4F202025D
:10163000914240F20402C4F2020237DD3023C4F2C8
:101640000203994254D04423C4F20203994252D077
:101650005823C4F20203994252D14FF4003357E0A9
:101660001B0758BF10BD082303FA0EF31A4010D011
:101670000A6822F00E020A60012101FA0EF2CCF88B
:1016800004208163016B4FF480720029028418BF2B
:10169000884710BD0823C4F20203994218D01C23C6
:1016A000C4F20203994215D140231BE00823C4F27F
:1016B0000203994222D01C23C4F2020399421FD193
:1016C000202325E04FF480630CE04FF4804309E0D1
:1016D000042307E002F168044FF08063A14208BFD1
:1016E0004FF480031360C16A0029D2D0884710BD2F
:1016F0004FF400730CE04FF4005309E0022307E0BD
:1017000002F168044FF00073A14208BF4FF40013C8
:101710001360816A0022002980F82020B9D0884710
:1017200010BD0000002804BF012070472DE9F041E2
:1017300001684FF6F872CBF6FD724CF6CD430A44C1
:10174000CCF6CC43A2FB03236FF0030707EA930315
:101750000027C4F2020700F1040E00F11008C0E9EE
:101760000F739EE8045098E870010B6843F6F07719
:10177000BB431A4342EA0C0242EA0E0222432A43C6
:10178000324342EA08020A6000214FF4807281630A
:101790000284BDE8F04108467047000010B50446D9
:1017A00090F82000012821D094F821004FF0010C7E
:1017B000012884F820C016D1022084F821000020DE
:1017C000A063D4F800C0DCF8000020F00100CCF8E1
:1017D00000002046FFF7D8FB2068E26A01683AB1B2
:1017E00041F00E010AE0002084F82000022010BD24
:1017F00021F004010160016841F00A0101602068E4
:10180000016841F001010160002010BDB0B504463F
:1018100000F01AF9054640F21400C2F20000007808
:10182000611C18BF044400BF00F00EF9401BA04229
:10183000FAD3B0BD2DE9F04F82B00E68002E00F053
:10184000F38041F20042C4F20102042340F2004E50
:10185000904208BF03234FF6FF7CC4F2010E0093B1
:1018600000240123C1F2100C4FF0000A4FF00009D0
:1018700040E0012504F00C030F279F402BEA0707E7
:1018800005FA03F33B4342F826304E68F203DEF8D4
:10189000002054BF22EA080242EA0802CEF80020E3
:1018A000DEF80420B30354BF22EA080242EA080229
:1018B000CEF80420F302DEF8082054BF22EA080222
:1018C00042EA0802B30240F20C43CEF80820C4F208
:1018D00001031A6854BF22EA080242EA08021A60A9
:1018E00001230E680AF1010A36FA0AF204F104042F
:1018F00000F09A8003FA0AFB16EA0B08F1D04A6856
:10190000624511DC122A51D8DFE802F0340A42465F
:1019100050505050505050505050505050494D0021
:10192000D1F80C9042E000BF4FF6FF75C1F22105DF
:10193000AA420FDC0025C1F21105AA421AD00025E7
:10194000C1F21205AA4215D00025C1F22105AA4212
:1019500010D02BE00025C1F22205AA420AD00025B2
:10196000C1F23105AA4205D00025C1F23205AA42D2
:101970001CD100BF8A6842B1012A14BFC0F814B05C
:10198000C0F810B04FF0080910E04FF004090DE066
:10199000CA6802F1080909E04FF0000906E0CA68C8
:1019A00002F1040902E0CA6802F10C092246054668
:1019B000B8F5807F24BF203A04352E680F27974062
:1019C000BE4309FA02F232432A60CA79D2067FF591
:1019D00088AF41F21803C4F202031A684FEA9A066C
:1019E00042F001021A601A6840F6000302F0010298
:1019F0000192019AAEF57E7252F826B0C4F201034C
:101A000098420FD040F60043C4F2010398423FF4DD
:101A100030AF41F20003C4F20103009D984208BFB9
:101A2000022527E7002525E702B0BDE8F08F00007A
:101A30008068084018BF012070470000002A08BFD6
:101A4000090401617047000040F22060C2F200000A
:101A5000006870477047000070470000F0B581B023
:101A6000036804465A68C56A90F83E1090F83DC075
:101A7000402901D010290BD19F695869C60728D188
:101A8000B5F12A4F02D0B5F52A0F24D101B0F0BD2F
:101A9000206C00280CBF99690021586912F4007E5F
:101AA00018BF10F002053CD1BEF1000F18BF10F0B6
:101AB00010013FD14CF00801292957D1510560D5BB
:101AC00000F0840180295CD1204601F01FFF01B0A5
:101AD000F0BD96051DD412F4007E18BF10F0080565
:101AE0002DD1BEF1000F18BF10F002052CD15B689C
:101AF0007D0703F400632CD4002BC7D1510558D5C2
:101B000000F04401402954D1204601F0C1FB01B04E
:101B1000F0BD204601F05AF9204601F0BBFD01B0AE
:101B2000F0BD206C0028204618BF996901F012FF13
:101B300001B0F0BD204601F037FF01B0F0BD2046F6
:101B400001F0AAFC01B0F0BD204601F0B9FC01B0E3
:101B5000F0BD002B9AD1520537D500F08402802ABF
:101B600033D1204601F03CFC01B0F0BD510514D545
:101B700000F04401402910D1204601F093FE01B04D
:101B8000F0BDBEF1000F18BF10F004003FF47EAFAF
:101B9000204601F0ADFE01B0F0BDBEF1000F18BF50
:101BA00010F004003FF472AF204601F06BFE01B06C
:101BB000F0BDBEF1000F18BF10F004003FF466AF97
:101BC000204601F0F1FA01B0F0BDBEF1000F18BFE0
:101BD00010F004003FF45AAFBCF1210F04D12046AD
:101BE00001F0BAFB01B0F0BD40297FF44FAF2046B1
:101BF00001F094FD01B0F0BD7047000090F83D0089
:101C000070470000F0B581B0B0B3044690F83D00D5
:101C100028B9002084F83C00204600F065FA242012
:101C200084F83D002068016821F00101016001682D
:101C300041F400410160016821F40041016000F0BD
:101C4000EFFC48F28041C0F21E0140F600126568C8
:101C500088424FF00001C0F23D0248F2A16C4FF003
:101C6000000338BF01219042C0F2010C38BF0123AC
:101C7000654538BF0B4613B1012001B0F0BD4DF6EC
:101C80008361C4F21B31A0FB011221684FEA924E1E
:101C90004B684FF4967623F03F0343EA92434B6040
:101CA00044F6D3530F6A0EFB06F6C1F26203A6FB9D
:101CB000033627F03F03B709654538BF970C7A1CF8
:101CC0001A430A62CA6948F2A0674CF6FF73C0F271
:101CD0000107BD4222EA030C0AD801386A00B0FBB2
:101CE000F2F001306FF31F30042898BF04202BE07E
:101CF000A368A0F1010E9BB119206843BEFBF0F070
:101D00000422013062F31F30000512D09BB119206C
:101D10006843BEFBF0F00422013062F31F3011E093
:101D200005EB4500BEFBF0F001306FF31F300005FE
:101D3000ECD1012008E005EB4500BEFBF0F00130DE
:101D40006FF31F3040F4004040EA0C00C86108689F
:101D5000D4E9072320F0C0001043184308608868C6
:101D600048F2FF3204F10C0790438CCF1843104324
:101D7000A6698860C86820F0FF0038433043C86017
:101D8000086840F00100086000202021206484F8E9
:101D90003D10206384F83E0001B0F0BD2DE9F04F06
:101DA00083B01E4691460F460446FFF74DFE94F859
:101DB0003D1020290CD102210546C0F21001204619
:101DC00001221923009501F0A1FE30B1022700E0A5
:101DD0000227384603B0BDE8F08F94F83C00012894
:101DE00001D10227F5E70121206884F83C10016841
:101DF000C90703D1016841F001010160016807F0E2
:101E0000FE0A21F400610160242084F83D000020D6
:101E100020640020CFF6FF704FF0010B4FF0A008B8
:101E2000E062B9F1020F98BF4FF00209206800226A
:101E30000168334641F48071016020464FF0011182
:101E4000009501F063FE2168002854D1C1F810A06C
:101E5000FFF7FAFD21680A4652F8143F176894F814
:101E60003D50A02D054620D003F0020007F480630A
:101E7000C0181AD1FFF7E8FD36B1401BB04288BF49
:101E800084F83D8002E000BF84F83D802168486905
:101E90004A6994F83D30A02B05D000F0020002F40E
:101EA00080628018E6D001F11402202084F83D0001
:101EB00048690B68800743F400730B6023D46FF408
:101EC0008060022110602046C0F210010122192317
:101ED0000095012701F01AFE00287FF47AAF0BF17C
:101EE000010BCB45A2D1202084F83D000020012722
:101EF00084F83C006DE708680327C00544BF4FF431
:101F00000070206465E700260296106801220290A6
:101F100088690221029002982046C0F2100119231C
:101F20000095012701F0F2FD00287FF452AF202038
:101F300084F83D0084F83C6000274AE770470000C1
:101F400070470000704700007047000070470000B5
:101F50002DE9F04385B004460020984616460F460A
:101F60000490FFF771FD94F83D1020291FD105461C
:101F700040F21000C2F2000000684BF28951C00824
:101F8000C1F2F841A0FB0102DDE90C10120A19238D
:101F90005A430492049A013A0492049A5AB122686C
:101FA00093699B07F6D494F83C30012B14D102209E
:101FB00005B0BDE8F08300202021206384F83D10A7
:101FC00084F83E00216C41F02001216484F83C003B
:101FD000012005B0BDE8F083012384F83C3013688C
:101FE000DB0703D1136843F00103136013684FF05C
:101FF000000C23F400631360212384F83D30402358
:1020000084F83E30C4F840C061626085638D002072
:10201000CFF6FF702385E062FBB1606B48B342F6F8
:102020000D7C42F6CD6EC0F6000CC0F6000E4FF0EF
:1020300000091032C0E90AC9C0E90CE9FFF7AEFB9C
:1020400008B3202084F83D0084F83E90206C40F0D6
:102050001000206484F83C90BAE7202084F83D000A
:1020600084F83EC0206C40F04000206484F83CC0FE
:10207000AEE7202084F83D00002084F83E00216C6B
:1020800041F08001A1E723200090204639463246E6
:102090004346019501F096FB88B1606BFFF72EFA7D
:1020A000616B206800228A62016821F4806101600E
:1020B00022856285016821F00101016088E7002026
:1020C000039021684A6903928A690392039A84F80B
:1020D0003C004A6842F480724A604A6842F40062F6
:1020E0004A6005B0BDE8F08370B586B0044645F29D
:1020F00000402168C4F2000000268142CDE9046658
:102100000396029601D006B070BD41F21805C4F2E4
:102110000205296800F5384041F008012960296866
:1021200001F0080101910199C0210291122103914E
:102130000321059102A9FFF77DFB6868102140F497
:1021400000106860686840F2405500F4001001908B
:1021500001986C20C2F20005C4F20200802285E8DA
:1021600043002846C5E90326C5E90566EE61FFF789
:10217000D9FA002818BFFEF71FFF1F2000210022F8
:1021800065636C6200F07AF81F2000F073F806B007
:1021900070BD0000704700007047000040F214005E
:1021A00040F22061C2F20000C2F2000100780A6829
:1021B000104408607047000080B542F20000C4F28D
:1021C0000200016841F010010160032000F066F890
:1021D0000F2000F005F800F02BF8002080BD000073
:1021E000B0B540F21402C2F2000240F210011278BF
:1021F000C2F200014FF47A730968B3FBF2F20446AD
:10220000B1FBF2F1084600F0E5FB0F2C4FF00105A1
:102210000CD858B94FF0FF3021460022002500F0BD
:102220002DF840F21800C2F2000004602846B0BD4C
:1022300082B041F21800C4F202000168022241F0AB
:1022400001010160016801F00101019101994168FA
:1022500041F080514160406800F08050009000984B
:102260000420C4F20100016862F31A61016002B047
:102270007047000080B502F003F980BD70B51446C8
:102280000D46064602F00CF92946224601F078FE7A
:102290000146304602F00CF970BD000080B502F036
:1022A00019F980BD80B5012818D0022841D0102826
:1022B0003DD141F20401C4F202010A6851F8040C54
:1022C000C00134D5C2F383402EA3185CD2033FD49F
:1022D00040F60012C0F23D02504345E041F20400D6
:1022E000C4F20200C16940F202320A40B2F5817FB5
:1022F00004BF4FF4004080BD01F44071B1F5407F50
:102300000DD0B1F5007F12D1026A920744BF49F6A1
:10231000404080BDB1F5407F1CBF002080BD50F81B
:10232000040C4FF22441800301EAE07080BD0020DC
:1023300080BD00F087F941F20401C4F2020109688E
:102340000222C1F3813102EB4101B0FBF1F080BD0B
:102350000A6810A3C2F340429A5C41F20023C0F223
:102360007A03B3FBF2F250430968490248BF80BDCB
:102370004AF6AB214000CAF6AA21A0FB0101480899
:1023800080BD00BF02030405060708090A0B0C0DF7
:102390000E0F1010010200002DE9F04182B004463A
:1023A000007841F21C06C007C4F202064AD0306829
:1023B00010F0805808D1306840F0805030603068AC
:1023C00000F080500190019847F20007C4F2000726
:1023D0003868C00512D4386840F480703860FFF760
:1023E00033FB05463868C00508D4FFF72DFB401BBA
:1023F0006428F7D9032002B0BDE8F081706810F4BA
:10240000407012D0616801F4407188420DD070684C
:1024100040F24042C4F24222012320F44071136092
:102420000023C0071360716029D17068616820F4CF
:1024300040700843B8F1000F706003D1306820F09D
:10244000805030602068810707D556F8181CA268B4
:1024500021F44041114346F8181CC00603D4002063
:1024600002B0BDE8F08156F8180CE16820F4800055
:10247000084346F8180C002002B0BDE8F081FFF7D1
:10248000E3FA054641F2883770688007CDD4FFF73C
:10249000DBFA401BB8424FF00300F5D9ECE700002F
:1024A0002DE9F04381B0002800F0898042F2000855
:1024B000C4F202080446D8F800000D4600F00700F8
:1024C00088420CD2D8F8000020F007002843C8F852
:1024D0000000D8F8000000F00700A8426FD1206883
:1024E00041F204098107C4F2020917D5410705D555
:1024F000D9F8001041F4E061C9F80010010705D5D2
:10250000D9F8001041F46051C9F80010D9F8001052
:10251000A26821F0F0011143C9F80010C00745D1AD
:10252000D8F8000000F00700A8420CD9D8F8000045
:1025300020F007002843C8F80000D8F8000000F099
:102540000700A8423BD12068410707D5D9F8001001
:10255000E26821F4E0611143C9F80010000708D5D2
:10256000D9F80000216920F4605040EAC100C9F8A0
:10257000000000F079F8D9F8001046F20C32C1F3EF
:102580000311C0F60002515C40F2100220FA01F182
:1025900040F21800C2F200000068C2F200021160AE
:1025A000FFF71EFE002001B0BDE8F083606802283E
:1025B00009D0012829D159F8041C890307D4012026
:1025C00001B0BDE8F08359F8041C8901F7D5D9F8AA
:1025D000001021F003010843C9F80000FFF734FAA6
:1025E000064641F2883700BFD9F80000616800F064
:1025F0000C00B0EB810F93D0FFF726FA801BB84296
:10260000F2D9032001B0BDE8F08359F8041C890712
:10261000D5D5DCE740F21000C2F200000068704738
:1026200080B5FFF7F7FF41F20401C4F20201096827
:1026300046F21C32C1F30221C0F60002515CC840D0
:1026400080BD000080B5FFF7E5FF41F20401C4F250
:102650000201096846F21C32C1F3C221C0F6000231
:10266000515CC84080BD000041F2040CC4F2020C71
:10267000DCF8003003F00C00082841F20020C0F222
:102680007A0018BF7047C3F383420AA18A5CD9035A
:1026900005D440F60010C0F23D0050437047DCF80E
:1026A000001008A3C1F34041595C5043B0FBF1F066
:1026B000704700BF02030405060708090A0B0C0D4A
:1026C0000E0F1010010200002DE9F04182B0002829
:1026D00000F0C4800446007841F20006C007C4F24E
:1026E000020643D0706800F00C00042817D0706810
:1026F00000F00C00082802D17068C0030FD4656890
:102700002DB1B5F5A02F10D0B5F5803F11D03068B0
:1027100020F480303060306820F480200CE0306895
:10272000800323D5606808BB98E0306840F48020BF
:102730003060306840F480303060FFF785F9002D5C
:10274000054610D03068800310D4FFF77DF9401B98
:102750006428F7D904E100BFFFF776F9401B64282D
:102760004FF0030077D830688003F5D420788007D5
:1027700018D5706810F00C0F07D0706800F00C00CE
:10278000082826D17068C00323D43068800702D59A
:102790002069012862D13068616920F0F80040EAC0
:1027A000C1003060207800073DD5A06938B3002013
:1027B000C4F242200121C0F88014FFF745F9054614
:1027C000706A80072DD4FFF73FF9401B0228F7D924
:1027D000C6E02069002840F20000C4F2422000F068
:1027E000968001210160FFF72FF9054630688007C8
:1027F000D1D4FFF729F9401B0228F7D9B0E0002017
:10280000C4F242200021C0F88014FFF71DF90546EC
:10281000706A800707D5FFF717F9401B0228F7D920
:102820009EE001F0C5FB207840071BD4E5698DB11F
:10283000706800F00C00082847D1012D0ED0706898
:10284000216A00F480328A4208D1616A00F4701073
:10285000884203D1002002B0BDE8F081012002B01F
:10286000BDE8F081F06910F0805808D1F06940F0BF
:102870008050F061F06900F080500190019847F2BB
:102880000007C4F200073868C00510D4386840F467
:1028900080703860FFF7D8F8054600BF3868C0057B
:1028A00005D4FFF7D1F8401B6428F7D958E0E56854
:1028B0001DB1052D3CD0012D3ED0306A20F0010025
:1028C0003062306A20F0040039E00027C4F2422769
:1028D00000203866FFF7B8F8022D05460CD100BF7E
:1028E0003068800154D5FFF7AFF8401B02284FF045
:1028F0000300F5D9AFE700BF30688001AAD5FFF724
:10290000A3F8401B02284FF00300F5D9A3E70021EC
:102910000160FFF799F80546306880077FF542AF00
:10292000FFF792F8401B02284FF00300F4D992E71A
:10293000306A40F004003062306A40F001003062DA
:10294000FFF782F8002D054641F2883714D000BF0A
:10295000306A800713D4FFF777F8401BB842F7D9E5
:10296000032002B0BDE8F081FFF76EF8401BB842CB
:102970004FF003003FF66FAF306A8007F4D4B8F130
:10298000000F7FF453AFF06920F08050F0614DE705
:10299000206AB0F5803F05D17168A26821F400314A
:1029A000114371607168626A21F474111043084325
:1029B000706001203866FFF747F8044630688001F0
:1029C0003FF548AFFFF740F8001B02284FF0030027
:1029D000F4D940E780B501F003FB80BD10B590F855
:1029E0003C20012A4FF0020231D0012380F83C3014
:1029F00080F83D200268D2F804E0D2F808C00C68E4
:102A00002EF07003234340F2FF74C4F20004A2428C
:102A1000536005DCB2F1804F0ED040F2004307E076
:102A200042F60043C4F201039A4205D040F6000387
:102A3000C4F200039A4204D149682CF08003194380
:102A400091600121002280F83D1080F83C20104662
:102A500010BD0000002804BF0120704710B50446D7
:102A600090F83D0028B9002084F83C00204600F092
:102A70001FF8022084F83D002068211D01F0B2FB00
:102A8000012084F8460084F83E0084F83F0084F872
:102A9000400084F8410084F8420084F8430084F840
:102AA000440084F8450084F83D00002010BD00007B
:102AB00081B0006840F20041C4F20001884201D0B8
:102AC00001B0704741F21C00C4F20200016841F0FD
:102AD00002010160006800F002000090009801B05F
:102AE0007047000010B5044690F83C0001284FF0F4
:102AF000020008BF10BD012284F83C2084F83D008C
:102B000020684FF6777382689A4382600A683F2A8A
:102B100014DD5F2A18DD602A28D0B2F5005F2DD0C1
:102B2000702A40D1D1E9012CCB68614601F0B2FB9B
:102B30002068816841F07701816034E01F2A0FDC52
:102B400092B1102A10D02EE0402A23D0502A2AD148
:102B50004B68CA68194601F06DFC2068502120E0DE
:102B6000202A01D0302A1ED111461AE04B68CA68CB
:102B7000194601F071FC2068602112E0D1E9012CB6
:102B8000CB68614601F086FB2068816841F4804192
:102B9000816008E04B68CA68194601F04BFC206868
:102BA000402101F083FB012084F83D00002084F8DF
:102BB0003C0010BD80B586B0016840F20040C4F210
:102BC000000081424FF00001CDE90411CDE902116E
:102BD00001D006B080BD41F21801C4F202010A68BA
:102BE00000F5843042F008020A60096801F008012B
:102BF000019101990321029102210391059102A9FA
:102C0000FEF718FE06B080BDB0B5044690F83C0053
:102C1000012804BF0220B0BD4FEAB2000D460121D9
:102C2000032884F83C1036D8DFE800F0020A1222AC
:102C30002068294601F042FB206850F8181F0EE07A
:102C40002068294601F06AFB206850F8181F16E03A
:102C50002068294601F096FB206850F81C1F41F0BF
:102C600008010160016821F00401016029690FE099
:102C70002068294601F0B8FB206850F81C1F41F479
:102C800000610160016821F4806101602969090225
:102C9000026811430160002084F83C00B0BD0000D0
:102CA000002804BF0120704710B5044690F83D008D
:102CB00028B9002084F83C00204600F01FF80220CC
:102CC00084F83D002068211D01F08CFA012084F871
:102CD000460084F83E0084F83F0084F8400084F801
:102CE000410084F8420084F8430084F8440084F8EA
:102CF000450084F83D00002010BD00007047000032
:102D0000B0B5044641B1082909D0042914BF04F123
:102D1000410004F13F0004E004F13E0001E004F151
:102D20004000007801281CBF0120B0BD022041B145
:102D3000082909D0042914BF84F8410084F83F0011
:102D400004E084F83E0001E084F84000206842F688
:102D500044450122C4F2010501F08AFA2068A5F178
:102D60004401884203D1296841F40041296040F2BE
:102D7000FF71C4F20001884205DCB0F1804F0ED033
:102D800040F2004107E042F60041C4F201018842EE
:102D900005D040F60001C4F20001884206D18168E6
:102DA00001F00701062904BF0020B0BD016841F011
:102DB000010101600020B0BDFEE7000080B540F2D7
:102DC0008450C2F20000FEF749FE80BDC16AB1F531
:102DD0002A0F02D10121C1627047C16AB1F12A4FA5
:102DE00018BF70470821C1627047000010B582B05B
:102DF00000210191406A40F21001C2F2000190F8F6
:102E00003DC009684BF28952C908C1F2F842A1FBE2
:102E10000212110A23225143019100BF019939B1D5
:102E2000019901390191016809688905F6D403E027
:102E3000016C41F020010164446B4FF0000E002C46
:102E40001CBF0021A162816B00291CBF00228A6285
:102E50000268002C136823F480631360A0F82AE052
:102E600018BFC4F834E000291CBF00234B6311686D
:102E700021F00101116090F83D1060290AD1202154
:102E800080F83D10002180F83E100164FEF7E2FD5D
:102E900002B010BD0CF0280128290DD1116841F0B5
:102EA00001011160116841F480611160002101632A
:102EB000282180F83D1005E0202180F83D100021F8
:102EC00080F83E10FEF798FE02B010BD80B5406A53
:102ED000416B00291CBF00228A62816B00291CBF44
:102EE00000228A6201680A6822F480620A60002176
:102EF0002022418580F83D2080F83E10016C41F091
:102F000010010164FEF778FE80BD000010B5446A30
:102F100094F83D2094F83EE0D4F82CC02068616B12
:102F20004368002923F4407343601CBF00238B6275
:102F3000A16B00291CBF00238B6202F02101212913
:102F400006D0BEF1200F17D102F02201222913D1A1
:102F500041682A2A21F4006141604FF00000608539
:102F600024D0292A2AD121202063282084F83D005A
:102F70002046FFF711F921E094F83E10002908BF20
:102F800010BD618D012903D1016821F480610160C8
:102F90004168BCF1070F21F44071416014DCBCF1C1
:102FA0002A4F17D01CF5803F14D017E02220206351
:102FB000282084F83D002046FFF7ECF8206841689F
:102FC00041F44071416010BDBCF1200F02D0BCF152
:102FD000080F03D1016841F400710160416821F4D8
:102FE00080514160416821F40061416000206085AA
:102FF000216C19B12046FEF7FFFD10BD202184F899
:103000003D1094F83E1084F83E00402905D1002080
:1030100020632046FEF798FF10BD12202063204653
:10302000FEF78EFF10BD000010B5044690F83D007D
:1030300094F83E10402901D0102906D1222804D14D
:1030400021680A6822F400620A6000F02801282939
:1030500005D100202063282084F83D000EE021687F
:103060006028496808D011F4006005D1202084F858
:103070003D00002084F83E00002020632068416865
:1030800009051AD494F83D10602935D1202184F81F
:103090003D10002121644169490605D50069616A36
:1030A0000870606A013060622068016821F00101E7
:1030B00001602046FEF7CEFC3EE0416821F400614D
:1030C0004160606B90F82110012922D1A06B42F67B
:1030D000ED51C0F600014163FEF710FA60B32068BD
:1030E0004169490605D50069616A0870606A013066
:1030F00060622168A06B16E04169490605D5006948
:10310000616A0870606A013060622046FEF774FDF3
:1031100012E042F6ED51C0F600014163FEF7EEF910
:1031200050B12168606B0A6822F001020A60202118
:1031300084F83D10416B8847206C000704D020685C
:10314000416821F4E061416094F83D10206C282929
:1031500011D110F0040008BF10BD0020CFF6FF70A1
:10316000E06200202021206384F83D1084F83E00B6
:103170002046FEF7E3FE10BD0268516949054FF095
:1031800000010FD56FF4806353612022016380F842
:103190003D2080F83E10026C42F00402026480F888
:1031A0003C1001210846704780B5C16A428D042A4F
:1031B00007D10168426A4B6823F480634B60096958
:1031C00011E0428D032A16D102680229536823F4C4
:1031D0008063536005D0042903D0116821F4806115
:1031E00011601169426A1170416A01314162418D79
:1031F0000139418580BD428D022A11D101390F2943
:1032000016D8DFE801F0081015101515151515155D
:1032100015151515150801680A6822F480620BE07F
:103220000168426ACBE701680A6842F4806203E001
:1032300001680A6842F400720A600168426A09691A
:103240001170416A02684B1C4362438D013B438508
:1032500012694A70416A026801314162418D013947
:103260004185516821F440715160202180F83D1062
:1032700090F83E200021402A80F83E1003D10163DF
:10328000FEF762FE80BD12210163FEF759FE80BD8C
:1032900010B5044690F83D00222836D1608D0428F0
:1032A00012D32068616A00690870606A0130606248
:1032B000608D01386085608D032826D120684168C3
:1032C00021F48061416010BDE16A01281DD8022906
:1032D00008BF10BD204600F099FC2168B0B14868D5
:1032E00020F4E06048600869616A0870606A013033
:1032F0006062608D01386085202084F83D000020E8
:1033000084F83E002046FEF777FC10BD086820F4E4
:1033100080600860486820F4E06048600869616A7D
:103320000870606A01306062608D0138608520201D
:1033300084F83D0094F83E100020402984F83E00B7
:1033400004D120632046FEF7FFFD10BD122020634C
:103350002046FEF7F5FD10BD80B5C16A90F83D200E
:10336000212A18BF80BD428D4AB1416A026811F816
:10337000013B13614162418D0139418580BD11F5E9
:10338000803F18BF082919D101684A6822F4E06219
:103390004A600A6842F400720A6000212022016338
:1033A00080F83D2090F83E2080F83E10402A02D15F
:1033B000FEF7CCFD80BDFEF7C5FD80BD2029E3D022
:1033C00001684A6822F4E0624A6011210163002129
:1033D00080F83E10202180F83D10FEF7B3FD80BD3F
:1033E00080B590F83D3090F83EC0C26A212B1DD1C7
:1033F000018DD9B912F5803F18BF082A2AD101687A
:103400004A6822F4E0624A600A6842F400720A6084
:1034100000212022016380F83D2090F83E2080F8B2
:103420003E10402A13D1FEF791FD80BD212B05D01F
:10343000222B08BFBCF1400F00D080BD418DD9B117
:1034400090F83E1040291DD100F068F980BDFEF7CC
:1034500079FD80BD202AD2D001684A6822F4E0625A
:103460004A6011210163002180F83E10202180F87C
:103470003D10FEF767FD80BD0068416821F4806162
:10348000416080BD416A026811F8013B13614162ED
:10349000418D0139418580BD0168426B436CDBB2CF
:1034A0000B610AB1926A2AB9806B38B1806A002830
:1034B00008BF7047486840F40060486070470000EB
:1034C00081B090F83E30D0F82CC0026B90F83D10DF
:1034D000222919D1402B016D08BF002914D0016D9C
:1034E000E1B90169B1F5404F18D10021009101689F
:1034F0004A6900928A690092009A0A6842F48072CE
:103500000A60016D0131C2E000210091006841694B
:10351000009180690090009801B07047418D81B1A1
:10352000418D01291AD1BCF1200F18BFBCF1080F41
:1035300050D101680A6822F480620A600022009279
:1035400002E00021009101684A6900928A690092B4
:10355000009A0A6842F400720A6097E0418D0229DD
:1035600017D1BCF1100F5CD80121142201FA0CF123
:10357000C0F20102114254D001680A6842F480622C
:103580000A60002200924A690092896900910099BC
:1035900057E00268116841F48061116051680905C3
:1035A00012D5ACF101031F2B07D80121994048F235
:1035B0008103C8F20003194202D11CF5803F03D1F8
:1035C000516841F48051516000210091516900918E
:1035D000916959E01CF5803F0ED101680A6822F418
:1035E00080620A604A681205A8D50A6822F48062DF
:1035F0000A600022009244E0BCF1010F01D0122ABF
:1036000097D0BCF1100F34D80121142201FA0CF12B
:10361000C0F2010211422CD001680A6842F48062B3
:103620002BE001680A6842F400620A6000220092FE
:103630004A6900928A690092009A0A6822F48062BC
:103640000A6002685168090520D5ACF101031F2BFF
:1036500007D80121994048F28103C8F200031942BA
:1036600002D11CF5803F11D1516841F48051516065
:103670000CE001680A6822F480620A60002100916F
:1036800001684A69009289690091009900210165E9
:1036900001B0704790F83E1040290AD1016D426C8C
:1036A000002902F0FE012ED0006841F00101016105
:1036B00070470169B1F5804F17D190F83D10426C09
:1036C000212902F0FE0218BF0132416B03681A6122
:1036D00009B1896A19B9816BA1B1896A91B1006890
:1036E000416841F4006141607047016D71B1016D45
:1036F000012918BF70470168406C062202EAD01009
:10370000F130086170470068016170470168406CE2
:10371000062202EAD010F0300861704780B590F8B8
:103720003D10026D3AB1026D012A0FD10168826C21
:10373000D2B20A611AE0C26C816C012A12D102680D
:10374000C9B21161016D0231016580BD026D022AAD
:1037500018BF80BD22290DD101680A6842F4807229
:103760000A6003E00268C1F307211161016D0131B4
:10377000016580BD428D21290AD14AB1416A0268A2
:1037800011F8013B13614162418D0139418580BDD2
:103790002129428D08BF002A00D080BD01684A68F7
:1037A00022F4E0624A600A6842F400720A60002172
:1037B0002022016380F83D2080F83E10FEF7C6FB12
:1037C00080BD00002DE9F04383B0044600680D463B
:1037D00001680A9F0B9E41F48071994690460160F2
:1037E00020464FF0011100223B46009600F08EF972
:1037F00050B120680068C00544BF4FF400702064D9
:10380000032003B0BDE8F083206805F0FE010161EC
:103810000221C0F2010120463A46334600F0B0F9D9
:1038200018B1012003B0BDE8F083002002902068A9
:1038300032464169029180693946029002982046D9
:1038400000F00CFA40B1206C0428EAD1206801682D
:1038500041F400710160E4E7B9F1010F0AD020687A
:103860004FEA1821016120463946324600F0F6F948
:103870000028E8D120685FFA88F10161002003B0D8
:10388000BDE8F083418D002908BF70470168426A96
:1038900009691170416A01314162418D01394185E7
:1038A0007047000080B590F83D10428D002A08BF97
:1038B00080BD0268436A12692A291A70426A02F1BD
:1038C00001024262428DA2F101024285428D08BF8F
:1038D000002A00D080BD01684A6822F480624A60F4
:1038E00022210163282180F83D10FEF753FC80BDA2
:1038F000418D002908BF7047416A026811F8013BF9
:1039000013614162418D01394185704780B590F85E
:103910003DC0418D002908BF80BD436A016813F88E
:10392000012BBCF1290F0A614362428DA2F1010211
:103930004285438D08BF002B00D080BD4A6822F429
:1039400080624A6021210163282180F83D10FEF742
:1039500023FC80BD80B582B090F83D2002F02802A3
:10396000282A15D10268536823F48063536001222A
:1039700022EA910309064FF0180158BF0C21425A60
:10398000002180F83C101946FEF766F802B080BDB1
:103990000021019102685369019392690192019A91
:1039A00080F83C1002B080BDB0B582B090F83D50B8
:1039B00001680446486820F4E060486000200190F7
:1039C00048690190086840F00100086001980868A3
:1039D00020F480600860486800053ED545F0080086
:1039E0002A281CD1A06B026852686285628D1AB1C8
:1039F000226C42F0040222644A6822F400624A60A7
:103A0000FDF7CEFD012828D0A06B42F6ED51C0F69F
:103A100000014163FDF772FDF8B1A06B1BE0606B24
:103A2000026852686285628D1AB1226C42F004020B
:103A300022644A6822F400624A60FDF7B1FD012861
:103A40000BD0606B42F6ED51C0F600014163FDF70B
:103A500055FD10B1606B416B8847608DF8B12068EF
:103A60004169490708D50069616A0870606A0130D8
:103A70006062608D0138608520684169490608D51B
:103A80000069616A0870606A01306062608D0138A7
:103A90006085608D18B1206C40F004002064206CBB
:103AA00020B12046FFF7C0FA02B0B0BD2A2D07D1E1
:103AB00000202063282084F83D002046FEF76AFBA2
:103AC00094F83D0028280FD10020CFF6FF70E06267
:103AD00000202021206384F83D1084F83E00204619
:103AE000FEF72CFA02B0B0BD222D206B18BF2228A1
:103AF00009D100202021206384F83D1084F83E0085
:103B00002046FEF747FB02B0B0BD00002DE9F047AC
:103B1000DDF820801D469146824601F47F078EB273
:103B20005C1C00BFDAF80000B7F5803F14BF183006
:103B3000143000683040801BB0FA80F040094845DE
:103B40001BD1002CEED0FDF77FFF1DB1A0EB0800CC
:103B5000A842E7D900202021CAF830008AF83D1099
:103B60008AF83E00DAF8401041F02001CAF840100F
:103B70008AF83C000120BDE8F0870020BDE8F0870E
:103B80002DE9F04104460068984643698FB203EA84
:103B90000701B94202D10020BDE8F0814169490521
:103BA00012D41646551C00BF35B1FDF74DFF16B3B4
:103BB000A0EB0800B0421ED8206841693940B942E4
:103BC000E9D041694905EFD5016841F40071016010
:103BD0006FF48061416100202021206384F83D1052
:103BE00084F83E00216C41F00401216484F83C001B
:103BF0000120BDE8F08100202021206384F83D10E1
:103C000084F83E00216C41F02001EEE781B00021F4
:103C1000009140F21001C2F2000109684BF2895292
:103C2000C908C1F2F842A1FB0212110A01EB81019D
:103C3000009100BF009901390091009931B10168EC
:103C400009688905F6D4002001B07047016C41F085
:103C500020010164012001B070470000F0B581B07F
:103C6000044600684069000624D415460E464F1CE1
:103C700004E000BF2068406900061BD42046FFF71F
:103C80007BFAA0B9002FF5D0FDF7DEFE16B1401B80
:103C9000B042EFD900202021206384F83D1084F841
:103CA0003E00216C41F02001216484F83C00012099
:103CB00001B0F0BD002001B0F0BD0000B0B584B08F
:103CC00040F2105042F200410024C2F20000C4F25F
:103CD00001014FF4807201254FF46023C0E9001404
:103CE00002210394CDE9014405730475C361826028
:103CF0000161FDF7F3F9002818BFFDF75DF9072012
:103D0000039040F21050C2F2000001A9CDE9014534
:103D1000FDF758F9002818BFFDF74EF91020019063
:103D20000220029040F21050C2F2000001A9FDF7FB
:103D300049F9002818BFFDF73FF904B0B0BD0000F5
:103D400080B582B041F21400C4F202000168002282
:103D500041F0010101600068002100F001000190C4
:103D600001981020FEF78AFA1020FEF783FA02B0BD
:103D700080BD00002DE9F04186B0002641F2180018
:103D8000CDE90466CDE90266C4F20200016840F69E
:103D9000004441F0040101600168C4F2010401F033
:103DA0000401019101990168002241F008010160BC
:103DB00000684FF4004100F008000190019820468F
:103DC0004FF40048FDF73AFE4FF4E04002ADCDE974
:103DD00002060127204629460497FDF72BFD022005
:103DE000059020462946CDE902870496FDF722FD7D
:103DF00006B0BDE8F081000080B540F2845045F285
:103E00000041C2F20000C4F2000141F6802200230A
:103E10004FF4804CC0F2060280E80E00C0E9033C7B
:103E2000C0E90533C0E90733FDF7ECFE002818BFF1
:103E3000FDF7C2F880BD000010B58EB040F2D8503A
:103E400040F200420021C2F20000C4F200024F23FF
:103E500063240D91CDE90B11CDE90911CDE90711CD
:103E6000CDE90511CDE90311CDE90111C0E9002328
:103E7000C0E9021401618161FEF7ECFD002818BF62
:103E8000FDF79AF84FF480500A9040F2D850C2F2F1
:103E900000000AA9FEF726FE002818BFFDF78CF8DF
:103EA00040F2D850C2F20000FEF7FAFE002818BF18
:103EB000FDF782F840F2D8500024C2F2000008A9B1
:103EC000CDE90844FEF78AFD002818BFFDF774F815
:103ED0006020CDE9010440F2D850C2F2000001A9EF
:103EE000082203940594FEF78FFE002818BFFDF703
:103EF00063F840F2D850C2F2000001A90C22FEF78C
:103F000083FE002818BFFDF757F840F2D850C2F2E0
:103F10000000FEF74FFE0EB010BD00002DE9F0418D
:103F2000DDF818801C4616460D46074601F0D1FE06
:103F3000002818BF2F463846314601F0B5FE00284C
:103F400018BF37463846294602F000F90746404672
:103F5000214602F0FBF8394602F02CF807463046BD
:103F6000294602F0F3F80146384601F0C5FE214625
:103F700001F02AFEBDE8F081FEE70000FEE7000048
:103F800000F0070080F00703042B28BF04234FF044
:103F9000FF3C03380CFA03F338BF002099438140FB
:103FA0000CFA00F022EA0000084370477047000056
:103FB00081B040F21000C2F20000006844F6D35114
:103FC000C1F26201A0FB0101480A009000BF009805
:103FD000411E00280091F9D101B0704770470000E0
:103FE000B0B501380024B4EB106F1CBF0120B0BD88
:103FF0004EF21005CEF2000568604FF0FF300F2141
:1040000000F056FA0720AC6028602046B0BD0000E2
:1040100070B5FEF7C3F840F28000C2F200000188DC
:1040200040F600450131C4F20105018028464FF4F5
:104030008041FDF7FDFC064628464FF40051FDF790
:10404000F7FC044628464FF48051FDF7F1FCBEB161
:1040500040F29002C2F2000240F28E031688C2F2D1
:10406000000300211980731C9EB2642E13801FD39D
:104070006423138040F28C02C2F20002117017E038
:1040800040F28E01C2F200010A880026013293B28A
:104090000A8040F29002C2F20002642B168007D31D
:1040A00064220A8040F28C01C2F2000101220A70EF
:1040B000BCB140F29C02C2F2000240F29A031688A0
:1040C000C2F2000300211980731C9EB2642E13807B
:1040D0001FD36423138040F29802C2F200021170D1
:1040E00017E040F29A01C2F200010A88002601326C
:1040F00093B20A8040F29C02C2F20002642B168046
:1041000007D364220A8040F29801C2F20001012222
:104110000A70C0B140F29601C2F2000140F294026E
:104120000B88C2F20002002010805A1C93B2642B4C
:104130000A8038BF70BD64220A8040F29201C2F248
:104140000001087070BD40F29400C2F200000188C6
:10415000002301318AB2018040F29601C2F20001CF
:10416000642A0B80EED36421018040F29200C2F2F7
:1041700000000121017070BDB0B594B00AAC2046BA
:104180002821FCF737F902200A9001200E90102018
:1041900000250F9020460995CDE90755CDE9055535
:1041A000CDE90355CDE901551195FEF78DFAA8B972
:1041B0000F20CDE9050505A80021CDE90755099592
:1041C000FEF76EF950B9022001900020039001A87B
:1041D000FEF7E2F8002804BF14B0B0BDFCF7ECFE17
:1041E0007047000010B540F2FF7E0368C4F2000E75
:1041F00042F6004C7045C4F2010C05DCB0F1804F72
:104200000AD040F2004203E0604505D040F60002CB
:10421000C4F20002904203D14A6823F070031343B2
:10422000704505DCB0F1804F0AD040F2004203E057
:10423000604505D040F60002C4F20002904203D16E
:10424000CA6823F44073134323F080024B69D1F80A
:1042500000E08C681A4360450260C462C0F828E040
:1042600002D10969CCF830100121416110BD000074
:1042700080B501F01F014FF0010CD0F820E00CFADE
:1042800001F32EEA03030362036A02FA01F1194300
:10429000016280BDD0F808C011432CF47F4C41EA84
:1042A000032141EA0C01816070470000826822F01E
:1042B0007002114341F0070181607047B0B5026A96
:1042C00042F6004422F001020262026AD0F804E0E1
:1042D000D0F818C08B6822F00202C4F20104A04298
:1042E00042EA030205D1CB6822F00C0223F004035A
:1042F0001A430B68A04207D1D1E905452EF4407E50
:1043000044EA0E0444EA050E2CF073052B43C0F872
:1043100004E08361496841630262B0BDB0B5026ADE
:1043200042F6004422F010020262026AD0F804E071
:10433000D0F818C08B6822F02002C4F20104A04219
:1043400042EA031207D1CB686FF0400522F0C002A9
:1043500005EA03131A430B68A04207D1D1E90545CA
:104360002EF4406E4EEA840444EA850E2CF4E645B1
:1043700045EA0323C0F804E083614968816302626F
:10438000B0BD0000B0B5026A42F6004422F480726B
:104390000262026AD0F804E0D0F81CC08B6822F4F4
:1043A0000072C4F20104A04242EA032207D1CB68A2
:1043B00040F2FF451B0222F44062AB431A430B68F4
:1043C000A04207D1D1E905452EF4405E4EEA04141F
:1043D00044EA051E2CF073052B43C0F804E0C361CA
:1043E0004968C1630262B0BDB0B5026A42F60045D9
:1043F00022F480520262026A4368D0F81CE00C6822
:10440000D1F808C0C4F20105A84204D14D6923F4D3
:10441000804343EA85132EF4E64545EA04254360CC
:10442000C56122F40052496842EA0C32016402621A
:10443000B0BD0000D0F820C0036A23F0010303627E
:10444000836923F0F00343EA02122CF00A031943B4
:104450008261016270470000036A23F01003036267
:104460008369D0F820C023F4704343EA02322CF071
:10447000A00343EA0111826101627047FEE7000078
:10448000002848BF704700F01F01012202FA01F125
:104490004EF200124009CEF2000242F8201070479E
:1044A0004EF60C50CEF200000068C0F302207047B8
:1044B0004EF6145300F00F02CEF2000309011A4425
:1044C00000F16043B0F1FF3FC8BF03F564421170D3
:1044D000704700004EF60C51CEF200010A684FF60C
:1044E000FF031A4060F30A2242F0806040F0FD7042
:1044F0000860704782B0FDF75FFEFFF73DFEFFF7F3
:1045000039FCFFF779FCFFF71BFCFFF795FCFFF781
:10451000D5FB00F093F900F089F900F059F901207A
:1045200000F012FA0220002100F014FA40F2000418
:10453000C2F20004D4E900129DA000F0D3FA1E20BC
:10454000002100F007FAD4E900129BA000F0CAFA9B
:1045500000F00CFA40F2D855C2F2000528460821B6
:10456000FEF7CEFB28460C21FEF7CAFB286840F276
:104570008C0640F29E0840F2980540F2A00B40F2F3
:10458000920440F29F0940F280074FF0000E4FF076
:10459000010CC2F20006C2F20008C2F20005C2F22B
:1045A000000BC2F20004C2F20009C2F20007C0F818
:1045B0003CE0C0F840E000BF3078012805D198F811
:1045C0000010002908BF88F800C02978012905D10A
:1045D0009BF80020002A08BF8BF800C02278012A2F
:1045E00005D199F80030002B08BF89F800C028B920
:1045F00098F80000012808BF88F800E029B99BF866
:104600000000012808BF8BF800E02AB999F80000E3
:10461000012808BF89F800E03888B0F5FA6FCBD9D7
:1046200040F2105AC2F2000A5046A7F800E0FCF728
:10463000DBFE50464FF47A71FCF710FE5046FCF753
:1046400049FD4E46D946C34640F28208C2F20008F0
:10465000A8F800005046FCF737FF50464FF47A7137
:10466000FCF7FCFD5046FCF735FDA8F8020050466B
:10467000FCF72AFFB8F8020001F07AF846F2666A01
:10468000C4F20A0A4FF06632534601F085F84FF63D
:104690000065C4F2AF0500222B4600F00FFF4BF679
:1046A000520245F2EB13C8F21E52CBF6E87300F04B
:1046B0005DFE41F27B4247F6E123C4F2AE72C3F6DF
:1046C000647300F0FBFE00230022C4F2390300F003
:1046D0004DFE00F019FEB8F8001040F20854C2F286
:1046E000000420600846D846CB46B14601F040F8A9
:1046F0004FF06632534601F04FF800222B4600F08F
:10470000DDFE00F001FE43F2333143F23332002587
:10471000C4F25301C4F283020023C4F2C8250095F9
:10472000FFF7FCFB40F28801C2F20001086001F0D3
:104730001FFA40F2C845C2F2000502460B46284661
:104740001FA1FBF757FD0020002100F003F940F204
:104750000806C2F20006D6E90012284600F0C2F9A7
:1047600000F004F9206801F003FA02460B462846DF
:1047700015A1FBF73FFD0020002100F0EBF8D6E982
:104780000012284600F0AEF900F0F0F840F2920472
:1047900040F2980540F28C06C2F20004C2F2000515
:1047A000C2F200064FF0000E4FF0010C04E700BF0C
:1047B0004275656E6F0000004C6967687400000008
:1047C000252E306625000000252E316643000000AE
:1047D00080B540F2A800C2F200004FF48461FBF7FC
:1047E00009FE80BD832898BF3F2900D9704740F259
:1047F000A602C2F2000201F00703C908127841EADA
:1048000041114FF0010C00EB810040F2A801012A98
:104810000CFA03F2C2F2000103D10B5C1A430A54F2
:1048200070470B5C23EA02020A54704780B5A1204E
:1048300000F01EF9C82000F01BF980BD10B540F251
:104840008450C2F20000782105224FF47A73FDF7FC
:10485000A5FA00281CBF002010BD6420FCF7D6FF7D
:10486000AE2000F005F9D52000F002F9F02000F0AC
:10487000FFF8A82000F0FCF83F2000F0F9F8D32062
:1048800000F0F6F8002000F0F3F8402000F0F0F817
:104890008D2000F0EDF8142000F0EAF8202000F060
:1048A000E7F8002000F0E4F8A02000F0E1F8C020D4
:1048B00000F0DEF8DA2000F0DBF840F20C54C2F22F
:1048C0000004207818B1012804D1022000E0122051
:1048D00000F0CEF8812000F0CBF8207818B1012844
:1048E00004D18F2000E0CF2000F0C2F8D92000F0E2
:1048F000BFF8F12000F0BCF8DB2000F0B9F8402050
:1049000000F0B6F8A42000F0B3F8A62000F0B0F84C
:104910002E2000F0ADF8AF2000F0AAF840F2A2007F
:10492000C2F200000021018040F2A400C2F20000A7
:10493000018040F2A600C2F200000170FFF748FFBC
:1049400000F014F8012010BD40F2A601C2F20001EF
:104950000870704740F2A202C2F20002108040F2DA
:10496000A400C2F20000018070470000B0B540F220
:10497000A8040025C2F20004A5F15000C0B200F066
:1049800077F8002000F074F8102000F071F820464D
:1049900000F08CF80135082D04F18404ECD1B0BD91
:1049A0002DE9F04F83B040F2A206C2F20006338830
:1049B000CFB23B44832B0AD840F2A404C2F20004D5
:1049C0002388C1F3072B0BEB03013F2903D90020F8
:1049D00003B0BDE8F08FBBF1000F0292009040D011
:1049E000009840F2A60820380BFB00F00025C2F228
:1049F0000008019003E000BF01355D4531D0002F74
:104A0000FAD001980299284431F810A04FF000091B
:104A10001AE000BF98F800002188B0FA80F0400941
:104A200088F80000308829444844C0B2C9B2FFF772
:104A3000D9FE98F80000B0FA80F0400988F800002C
:104A400009F101094F45D7D00AFA09F00004E1D570
:104A50003088218848442944C0B2C9B2FFF7C2FE59
:104A6000EEE7308838443080009803B0BDE8F08F1E
:104A700010B584B040F28454C2F200048DF80F00E7
:104A80002046FDF7BBF82028FAD10DF10F00009069
:104A900040F284500124C2F2000078210022012358
:104AA0000194FDF755FA04B010BD0000B0B582B016
:104AB00040F284550446C2F2000500BF2846FDF7C7
:104AC0009DF82028FAD140F284508425C2F20000DB
:104AD00078214022012300940195FDF739FA02B0B4
:104AE000B0BD000070B503787BB114460D46461C7E
:104AF000D8B229462246FFF753FF16F8011C884218
:104B000005D116F8013B002BF2D1002070BD0846FC
:104B100070BD5FEA400C08BF91F0000F4FEA8C2394
:104B20004FEAC12243EA51514FEA1C5018BF00F529
:104B3000F0404FEA300018BF41F000415FEA6C5C82
:104B400000F02980BCF1FF3F08BF40F08040704773
:104B5000130C06BF12044FF0100C4FF0000C130E94
:104B600004BF12020CF1080C130F04BF12010CF168
:104B7000040C930F04BF92000CF1020CD30F04BF7E
:104B800052000CF1010C11464FF00002A0F11F0081
:104B9000A0EB0C00704711F0004F08BF704731F0D8
:104BA00000413FF4D5AF0B0C06BF09044FF0100CC9
:104BB0004FF0000C0B0E04BF09020CF1080C0B0F98
:104BC00004BF09010CF1040C8B0F04BF89000CF128
:104BD000020CCB0F04BF49000CF1010CCCF12003F7
:104BE00022FA03F341EA030102FA0CF2A0EB0C00F3
:104BF00000F101007047000023F07F4720F07F4C58
:104C000080EA030000F00040ACEB070303F57C539F
:104C100003F1FF032DE9804909B44FEA144324EA64
:104C200003484FEA154B25EA0B4E0FF2042606EB1C
:104C300013273E7803FB0667C7F5000707FB06F658
:104C40004FEAD64606F102064FEA543707FB066CD8
:104C5000CCF1005C4FEA1C472CEA074C0CFB06F534
:104C600007FB06F404EB15464FEA961649085FEA7F
:104C7000320234BF00204FF000404FEAD13706FB2C
:104C800007FC4FEA1C4C0CFB0BF7D21B03FB0CF789
:104C900061EB07010CFB0EF7B0EB074072EB17421C
:104CA0000CFB08F734BFA2EB0742B2EB074261EB03
:104CB00017414FEA0C444FEA910706FB07FC4FEA05
:104CC0001C4C0CFB0BF7B0EBC74072EB573203FBED
:104CD0000CF734BFA2EBC742B2EBC74261EB5731CE
:104CE0000CFB0EF7B0EBC70072EB57720CFB08F72A
:104CF00034BFA2EBC702B2EBC70261EB57714FEAB8
:104D0000816141EA92114FEA826242EA90124FEACF
:104D1000806004EBCC04039F4FEAD13706FB07FC0D
:104D20004FEA1C4C0CFB0BF7D21B03FB0CF761EB9F
:104D300007010CFB0EF7B0EB074072EB17420CFBC0
:104D400008F734BFA2EB0742B2EB074261EB174111
:104D50004FEA8C5504EB9C244FEA910706FB07FCB5
:104D60004FEA1C4C0CFB0BF7B0EBC74072EB573211
:104D700003FB0CF734BFA2EBC742B2EBC74261EBB7
:104D800057310CFB0EF7B0EBC70072EB57720CFB00
:104D900008F734BFA2EBC702B2EBC70261EB577151
:104DA0004FEA816141EA92114FEA826242EA90122F
:104DB0004FEA806015EB4C2544F100044FEAD137EF
:104DC00006FB07FC4FEA1C4C0CFB0BF7D21B03FB4A
:104DD0000CF761EB07010CFB0EF7B0EB074072EB31
:104DE00017420CFB08F734BFA2EB0742B2EB0742B5
:104DF00061EB17414FEA813141EA92414FEA823239
:104E000042EA90424FEA80304FEA0C7615EB1C15CF
:104E100044F1000448EA03434EEA0B484FF0000E09
:104E2000B2EB080C71EB030724BF624639464EEB28
:104E30000E0E4FF0000B0018524149414BEB0B0B8B
:104E4000B2EB080C71EB03077BF1000B24BF624649
:104E500039464EEB0E0E4FF0000B001852414941FF
:104E60004BEB0B0BB2EB080C71EB03077BF1000B68
:104E700024BF624639464EEB0E0E51EA020718BFB8
:104E800046F0010616EB0E7655F1000254F10001D2
:104E900003D5BDE88901BDE80088BDE88901BDE80A
:104EA0000048B619524141EB0101A3F101037047DB
:104EB00080807F7E7D7C7B7A797877767675747357
:104EC000727171706F6E6E6D6C6C6B6A6A69686816
:104ED000676666656464636362616160605F5F5EAC
:104EE0005E5D5D5C5C5B5B5A5A5959585857575622
:104EF0005655555554545353525252515150505087
:104F00004F4F4F4E4E4D4D4D4C4C4C4B4B4B4A4AD8
:104F10004A4949494848484747474746464645451C
:104F20004544444444434343434242424241414155
:104F30009C46002B30D477002BD04FEA37071CB5A6
:104F400003B44FF010004FF01001BAF1000F06D07B
:104F5000BCF1000FDCBF40F0080040F008014FF04A
:104F600000000FBCBDE810400BF1010BBBF1010FBD
:104F700008BF5FEA170722BF12F1010211F1010118
:104F80004FF0004143F1000300F0004043EA00000D
:104F90007047F9D35708D0E746EA06464FEA164667
:104FA00013F1400F1FDD13F1200FDFBF16430A4638
:104FB000002120335B42BED0C3F1200746EA0646FB
:104FC0004FEA164602FA07F746EA070622FA03F204
:104FD000C3F1200701FA07F742EA070221FA03F1B9
:104FE0004FF00003A7E746EA020646EA06464FEA04
:104FF000164646EA0106BCBF46EA0646360C4FF0A6
:1050000000034FF000024FF0000194E72DE9804CBF
:1050100070B49A46934691E8380007C831EA400CCC
:1050200048BF34EA430C03D5FFF7E6FDFFF780FFE6
:10503000F0BCBDE8008C2DE9804C70B49A469346D4
:1050400091E8380007C810F0804F08BF13F0804F78
:1050500003D100F005F8FFF76BFFF0BCBDE8008C52
:1050600020F07F4723F07F4C80EA030000F00040EF
:1050700007EB0C03A3F57C53A3F1FE0392F0000FA2
:1050800000F0B38095F0000F00F077802DE9014922
:105090004FEA114021EA00484FEA144624EA064745
:1050A00000FB06FC08FB06F607FB08F818EB0648B1
:1050B0004CEB164C00FB07F718EB07484CEB17407E
:1050C0004FEA124B22EA0B4E4FEA154625EA0647F5
:1050D0000BFB06FC0EFB06F607FB0EFE1EEB064E58
:1050E0004CEB164C0BFB07F71EEB074E4CEB174B2C
:1050F00018EB0B0840F1000018EB0E0B58EB000802
:1051000040F100008F1A4FF000014FF000063CBF45
:10511000C943661B14BFB5EB040C00213CBFC94357
:10512000F61B4FEA174427EA04454FEA1C472CEACE
:10513000074C04FB076205FB07F70CFB05F616EBB3
:10514000074642EB174204FB0CFC16EB0C4642EB05
:105150001C421BEB060658EB020241414EEA8E0E42
:1051600046EA9E0601D5BDE80189B619524141EBD8
:105170000101A3F10103BDE801894FEA144524EAC6
:1051800005464FEA114721EA074C05FB07F406FBE9
:1051900007F70CFB06F111EB074144EB174405FB45
:1051A0000CFC11EB0C4144EB1C444FEA124722EA81
:1051B000074C05FB07F206FB07F70CFB06F616EBA0
:1051C000074642EB174205FB0CFC16EB0C4642EB84
:1051D0001C456A1854F1000148BF7047B619524186
:1051E00041EB0101A3F10103704795F0000F37D0A7
:1051F0004FEA114221EA02464FEA144724EA074CDB
:1052000002FB07F106FB07F70CFB06F414EB07445F
:1052100041EB174102FB0CFC14EB0C4441EB1C412D
:105220004FEA154725EA074C02FB07F506FB07F78F
:105230000CFB06F616EB074645EB174502FB0CFC8C
:1052400016EB0C4645EB1C42121951F1000148BF08
:105250007047B619524141EB0101A3F101037047B8
:105260004FEA144524EA05464FEA114721EA074C64
:1052700005FB07F106FB07F70CFB06F212EB0742F2
:1052800041EB174105FB0CFC12EB0C4251EB1C41AE
:105290004FF0000648BF7047921841EB0101A3F19F
:1052A00001037047490050EAC12018BF04204A0D8D
:1052B00018BF40F0010040F2FF72B2EB515F08BF2F
:1052C00040F00200012808BF0520704730380A2846
:1052D00001D20120704700207047000010B500295E
:1052E0000AD00878002807D005487844FBF784FDE9
:1052F000002801D0002010BD0248784410BD0000F5
:10530000122B00000A2B000021F0004201F00043A4
:10531000A2F16052B2F5801F28BFD2F17F6C0BD989
:105320005FEA001C43EAC20242EB507018BF7047AC
:1053300028BF20F001007047B2F5801FBCBF18469F
:1053400070474FEA410C1CF5001F02D2084600F0DE
:10535000F8BE70B500F0CAFA00000089FFF7F6BF8A
:105360004FF00040A0F580007047000010B591EAB2
:10537000030F48BF83F0004300F11483841A71EBDC
:10538000030C05D2121943EB0C03001B61EB0C015B
:105390004FEA1154A4EB135CDFF81CE11EEA430F43
:1053A00018BF9EEA445F00F0748021EA045123EAAA
:1053B0000E0343F48013DCF1200E32D322FA0CFEEC
:1053C00010EB0E0023FA0CFE41EB0E01CCF1200E87
:1053D00003FA0EFE10EB0E00CCF1200E51F100018D
:1053E000B1F5801F32D201EB045112FA0EF2BDE882
:1053F000104058BF7047401C38BF5FEA420218BFD8
:105400007047002814BF20F0010041F100014FEA6D
:10541000410313F5001F38BF7047A1F1C04100F0F0
:10542000B3BA012A43EB0302ACF1200CDCF11F0EEE
:1054300032BF4FF0000E23FA0CF310EB030041EBE8
:105440000451B4EB115FD0D0A1EB045101F58011F0
:10545000490801EB04515FEA30000ED350F100001F
:1054600038BF12FA0EFE08D1BDE81040C9E7401C53
:1054700038BF5FEA4202CAD1C3E7BDE810404FEA35
:10548000410313F5001F38BF7047A1F1C04100F080
:105490007BBA9EEA445F08D011EA5E0FBDE8104077
:1054A00004BF01F0004100207047BDE8104070B516
:1054B00000F01CFA64FBBE3E0000E0FF2DE9C04195
:1054C00030B4DFF8A4C23CEA111418BF3CEA13144C
:1054D00000F0ED801CEA111481EA030544EAD5745A
:1054E00018BF1CEA131500F0C880A4EB050404F1F2
:1054F0007F7404F500344FF0004545EAC12145EAC8
:10550000C32341EA505143EA52534FEAC0204FEAC5
:10551000C222994208BF904200F09D804FEA136575
:105520000FF24416765D4FEA134506FB05F7C7F107
:10553000807706FB07F74FEAD737A7FB0368764269
:10554000A7FB06CEC8F5803838BFA8F1010807FBD5
:1055500008E6A6FB028C4FF0000EE6FB03CEDCF162
:10556000000CCEF1004E38BFAEF1010EA6FB0C5878
:105570004FF00007E6FB0E87A1FB08C6A0FB07CE95
:1055800016EB0E064FF0000545F10005E1FB07653F
:1055900015F1E04E7EBFA4F580345FEA46066D410A
:1055A00016F1800745F100054FEA172747EA05671E
:1055B0004FEA15254FEA0666A6F1DE46B6F1805F92
:1055C00020D9384605EBC47124F0010C01EB0C1115
:1055D000BCF1FE6F02D8F0BCBDE8008124425CBF84
:1055E00001F5801E9EEAC47F02D4F0BCBDE80081B4
:1055F000244200F13980A1F1C041F0BCBDE8004176
:1056000000F0C2B94FEAD02040EA41504FEAD12120
:105610004FEAD22242EA43524FEAD323A7FB028643
:1056200007FB036605FB02661EEA0E0F58BFA6EBDA
:105630000056B6EB00564FEA520E4EEAC37E18EB08
:105640000E0E56EB530EBCD518EB02085E417F1CC4
:1056500055F10005B5E74FF480154FF000074FF006
:1056600000064FF00008ACE701F1C04101F0004135
:105670004FF00000F0BCBDE800810CEA131511EA00
:105680000C1F00D00CE013EA0C1F00F026804FF036
:10569000000081EA030101F00041F0BCBDE8008197
:1056A000F0BCBDE8004181EA030100F06DB9F0BC37
:1056B000BDE8004170B500F019F900BF097EFC3E5D
:1056C00000F007B84FF0000081EA030101F000414B
:1056D000704781EA030100F057B9F0BCBDE8004112
:1056E00022494FF000007047FFFDFBF9F7F5F4F297
:1056F000F0EEEDEBE9E8E6E4E3E1E0DEDDDBDAD86D
:10570000D7D5D4D3D1D0CFCDCCCBCAC8C7C6C5C4CA
:10571000C2C1C0BFBEBDBCBBBAB9B8B7B6B5B4B3E1
:10572000B2B1B0AFAEADACABAAA9A8A8A7A6A5A4CC
:10573000A3A3A2A1A09F9F9E9D9C9C9B9A99999890
:105740009797969595949393929191908F8F8E8E33
:105750008D8C8C8B8B8A89898888878786858584C0
:1057600084838382828181800000FF070000F87FAC
:10577000B0FA80F310FA03F10AD0C3F11D0303F568
:1057800080634FEA03524FEA415002EBD121704748
:105790004FF000007047000070B5DFF848C11CEA08
:1057A000111E1EBF1CEA13159EEA0C0F95EA0C0F82
:1057B00000F06F8081EA03044EEAD47EAE4421EA11
:1057C0004C1123EA4C1341F4801143F48013AEF1E1
:1057D0007F7EA1FB024CA0FB0365361955EB0C053F
:1057E000A1FB034C4CF10003A0FB021C16EB0C06C2
:1057F000654153F10003094218BF46F0010613F456
:10580000007F0BD14FEA03314FEA053041EA1551D1
:1058100040EA165034036FF003020AE04FEAC32156
:105820004FEAC52041EA555140EA5650F4026FF064
:10583000020202EB2E4201EB025585EACE710AD03C
:105840005FEA440C18BF24F0004450F1000041F11D
:10585000000120EAD47040F2FE7C624500D270BDA7
:10586000A84214BF4FF080444FF04044002E08BFC0
:105870000024BEF1806FA8BFA1F1C041BDE8704017
:1058800080F2828001F1C04101F000414FF0000040
:1058900070470CEA13159EEA0C0F18BF95EA0C0F1F
:1058A00006D081EA030E4FF000000EF0004170BDFB
:1058B00000F01CF88900013E00F007B800F009B8BC
:1058C0004FEA430C5FEA5C5C08D081EA030100F018
:1058D0005BB84FEA410C5FEA5C5CF6D102494FF0DD
:1058E000000070470000FF070000F87F0EF1020E75
:1058F0002EF0030E5EF8046B364205D4012A43EB0A
:10590000030515F5001F12D8012841EB010C1CF509
:10591000001F0CD80ED14FEAD17C0CEB4C0C0CF1D3
:10592000020C15F5001F08BF4CEBD37C04E04FF0D0
:10593000080C01E04FEAD37C0CEB4C0526FA05F687
:1059400006F00706B6F1040C06D20EEB860CBDE895
:1059500070404CF0010C6047DFE80CF0090B0202CC
:105960004FF00041A1F500214FF0000070BD194635
:105970001046012851EB010418BFD4F5001484BF70
:10598000002001F0004170BD0808A0F500114FEAA9
:105990003101704710B591EA030F48BF83F000430F
:1059A0003FF5ECAC841A71EB030C07D28CF0004C81
:1059B000121943EB0C03001B61EB0C014FEA11546D
:1059C000A4EB135CDFF8A4E11EEA430F18BF9EEAC4
:1059D000445F00F0B48021EA045123EA6E0352428E
:1059E000C3EB6E0338BF5B1EDCF1200E25D322FA19
:1059F0000CFE10EB0E0043FA0CFE41EB0E01CCF155
:105A0000200E03FA0EFE10EB0E00CCF1200E51F129
:105A1000000129D401EB045112FA0EF2BDE8104046
:105A200058BF7047401C1CBFB2F1004F70470028A0
:105A30000CBF491C20F00100704712EB020E43EB33
:105A4000030218BF4FF0010E4EEA4202ACF1200CE7
:105A5000DCF11E0E56D943FA0CFE10EB0E00CCF111
:105A60001E0E51F1FF31D5D50EF1010E12FA0EFEC8
:105A7000404141EB010101EB445C5FEA5C5C10D901
:105A800001EB045110EBDE7038BFBEF1004FBDE8F2
:105A9000104018BF704700280CBF491C20F00100BF
:105AA000704734D24FEAD42C24F4006411F500116D
:105AB0001BD0B1FA81F20B3AA41AA41ED2F1200332
:105AC000914030FA03F31943904001EBCC7101EBA4
:105AD0000451002CBDE81040A8BF704701F1C0413F
