:020000040800F2
:10000000900B002089010008DD2A0008011A000871
:10001000D92A000891020008652E0008000000009F
:100020000000000000000000000000003D2B000860
:1000300055030008000000000D2B0008712B00087C
:10004000A3010008A3010008A3010008A301000800
:10005000A3010008A3010008A3010008A3010008F0
:10006000A3010008A3010008A3010008A3010008E0
:10007000A3010008A3010008A3010008A3010008D0
:1000800019030008A3010008A3010008A301000848
:10009000A3010008A3010008A3010008A3010008B0
:1000A000A3010008A3010008A3010008A3010008A0
:1000B000A3010008A3010008A3010008051A000815
:1000C000A3010008A3010008A3010008A301000880
:1000D000A3010008A3010008A3010008A301000870
:1000E000A3010008A3010008A301000800F002F822
:1000F00000F03AF80AA090E8000C82448344AAF188
:100100000107DA4501D100F02FF8AFF2090EBAE885
:100110000F0013F0010F18BFFB1A43F0010318473B
:100120003C4600005C460000103A24BF78C878C105
:10013000FAD8520724BF30C830C144BF04680C60ED
:10014000704700000023002400250026103A28BF35
:1001500078C1FBD8520728BF30C148BF0B60704739
:100160001FB51FBD10B510BD00F058F81146FFF7C0
:10017000F7FF02F0B3FE00F076F803B4FFF7F2FFEA
:1001800003BC00F07DF8000009488047094800479B
:10019000FEE7FEE7FEE7FEE7FEE7FEE7FEE7FEE737
:1001A000FEE7FEE704480549054A064B7047000094
:1001B000C92B0008ED00000890050020900B0020DE
:1001C00090070020900700204FF0000200B5134672
:1001D00094469646203922BFA0E80C50A0E80C5067
:1001E000B1F12001BFF4F7AF090728BFA0E80C5018
:1001F00048BF0CC05DF804EB890028BF40F8042B11
:1002000008BF704748BF20F8022B11F0804F18BF7D
:1002100000F8012B7047704770477047754600F033
:100220002BF8AE4605006946534620F00700854688
:1002300018B020B5FFF7B6FFBDE820404FF000062C
:100240004FF000074FF000084FF0000BAC46ACE851
:10025000C009ACE8C009ACE8C009ACE8C00921F0AD
:1002600007018D46704710B50446AFF30080204665
:10027000BDE81040FFF781BF00487047180000201C
:1002800001491820ABBEFEE72600020070470000BF
:10029000FEE7000070B541F20004C4F201042046FC
:1002A0004FF4005100F0F8FA00281CBF002070BD88
:1002B00000F0FEFA40F27805C2F2000541F27076D5
:1002C000286000BF20464FF4005100F0E5FA28B93D
:1002D00000F0EEFA296831448842F3D900F0E8FAD8
:1002E000296801F57A61884284BF032070BD00F05F
:1002F000DFFA296801F2DC51884284BF022070BD18
:1003000000F0D6FA296801F164020021904288BF0A
:100310000121084670BD000080B540F2A840C2F23D
:10032000000000F075F880BDB0B5D0E900CED0E98E
:100330000F40012505FA00F060600846CCF8043053
:10034000BEF1100F04BF10460A46CCF80800CCF8E6
:100350000C20B0BD70470000EFF3108072B600BFF4
:10036000FEE7000080B590F82110022923D1026831
:10037000116821F00E0111602F211368C4F20201EF
:100380008A4240F20401C4F2020123F00103136027
:1003900015DD3023C4F202039A421CD04423C4F278
:1003A00002039A421AD05823C4F202039A421AD185
:1003B0004FF480331FE004218163012080BD0823B6
:1003C000C4F202039A420CD01C23C4F202039A42E4
:1003D00009D110230FE04FF480730CE04FF48053E9
:1003E00009E0012307E001F1680C4FF080736245DA
:1003F00008BF4FF480130B60416B4FF4807202848E
:1004000001B18847002080BD90F8210070470000AE
:1004100010B50168D0E90FCEDCF800200B685C074E
:1004200026D5042404FA0EF4144021D00A6892065A
:1004300003D40A6822F004020A602F22C4F20202E6
:10044000914240F20402C4F2020257DD3023C4F2AA
:10045000020399426AD04423C4F20203994268D04D
:100460005823C4F20203994268D14FF480236DE00F
:100470009C0729D5022404FA0EF4144024D00A68FB
:10048000920606D40A6822F00A020A60012280F865
:1004900021202F22C4F20202914240F20402C4F24F
:1004A000020237DD3023C4F20203994254D04423C0
:1004B000C4F20203994252D05823C4F20203994273
:1004C00052D14FF4003357E01B0758BF10BD08232B
:1004D00003FA0EF31A4010D00A6822F00E020A60E6
:1004E000012101FA0EF2CCF804208163016B4FF474
:1004F00080720029028418BF884710BD0823C4F207
:100500000203994218D01C23C4F20203994215D168
:1005100040231BE00823C4F20203994222D01C238B
:10052000C4F2020399421FD1202325E04FF48063D7
:100530000CE04FF4804309E0042307E002F1680473
:100540004FF08063A14208BF4FF480031360C16A7B
:100550000029D2D0884710BD4FF400730CE04FF44F
:10056000005309E0022307E002F168044FF0007332
:10057000A14208BF4FF400131360816A00220029D2
:1005800080F82020B9D0884710BD0000002804BFA3
:10059000012070472DE9F04101684FF6F872CBF663
:1005A000FD724CF6CD430A44CCF6CC43A2FB0323A8
:1005B0006FF0030707EA93030027C4F2020700F174
:1005C000040E00F11008C0E90F739EE8045098E88B
:1005D00070010B6843F6F077BB431A4342EA0C0202
:1005E00042EA0E0222432A43324342EA08020A60E8
:1005F00000214FF4807281630284BDE8F041084617
:100600007047000010B5044690F82000012821D062
:1006100094F821004FF0010C012884F820C016D175
:10062000022084F821000020A063D4F800C0DCF888
:10063000000020F00100CCF800002046FFF774FE17
:100640002068E26A01683AB141F00E010AE0002038
:1006500084F82000022010BD21F00401016001682F
:1006600041F00A0101602068016841F00101016068
:10067000002010BDB0B5044600F01AF9054640F25E
:100680000C00C2F200000078611C18BF044400BFD7
:1006900000F00EF9401BA042FAD3B0BD2DE9F04F97
:1006A00082B00E68002E00F0F38041F20042C4F2E6
:1006B0000102042340F2004E904208BF03234FF68C
:1006C000FF7CC4F2010E009300240123C1F2100C40
:1006D0004FF0000A4FF0000940E0012504F00C0340
:1006E0000F279F402BEA070705FA03F33B4342F825
:1006F00026304E68F203DEF8002054BF22EA0802DA
:1007000042EA0802CEF80020DEF80420B30354BF0A
:1007100022EA080242EA0802CEF80420F302DEF8D8
:10072000082054BF22EA080242EA0802B30240F25B
:100730000C43CEF80820C4F201031A6854BF22EA21
:10074000080242EA08021A6001230E680AF1010A4F
:1007500036FA0AF204F1040400F09A8003FA0AFB64
:1007600016EA0B08F1D04A68624511DC122A51D80A
:10077000DFE802F0340A424650505050505050507A
:100780005050505050494D00D1F80C9042E000BFFD
:100790004FF6FF75C1F22105AA420FDC0025C1F218
:1007A0001105AA421AD00025C1F21205AA4215D09D
:1007B0000025C1F22105AA4210D02BE00025C1F28C
:1007C0002205AA420AD00025C1F23105AA4205D06D
:1007D0000025C1F23205AA421CD100BF8A6842B18D
:1007E000012A14BFC0F814B0C0F810B04FF00809C7
:1007F00010E04FF004090DE0CA6802F1080909E0B1
:100800004FF0000906E0CA6802F1040902E0CA6874
:1008100002F10C0922460546B8F5807F24BF203A34
:1008200004352E680F279740BE4309FA02F232437F
:100830002A60CA79D2067FF588AF41F21803C4F264
:1008400002031A684FEA9A0642F001021A601A6817
:1008500040F6000302F001020192019AAEF57E72A9
:1008600052F826B0C4F2010398420FD040F600437C
:10087000C4F2010398423FF430AF41F20003C4F2E6
:100880000103009D984208BF022527E7002525E7C0
:1008900002B0BDE8F08F00008068084018BF01205A
:1008A00070470000002A08BF09040161704700007A
:1008B00040F28850C2F200000068704770470000A4
:1008C00070470000F0B581B0036804465A68C56AF5
:1008D00090F83E1090F83DC0402901D010290BD16E
:1008E0009F695869C60728D1B5F12A4F02D0B5F5DE
:1008F0002A0F24D101B0F0BD206C00280CBF9969EB
:100900000021586912F4007E18BF10F002053CD196
:10091000BEF1000F18BF10F010013FD14CF00801DC
:10092000292957D1510560D500F0840180295CD177
:10093000204601F00FFE01B0F0BD96051DD412F463
:10094000007E18BF10F008052DD1BEF1000F18BFB2
:1009500010F002052CD15B687D0703F400632CD4F2
:10096000002BC7D1510558D500F04401402954D17E
:10097000204601F0B1FA01B0F0BD204601F04AF87E
:10098000204601F0ABFC01B0F0BD206C00282046F1
:1009900018BF996901F002FE01B0F0BD204601F0D8
:1009A00027FE01B0F0BD204601F09AFB01B0F0BD7A
:1009B000204601F0A9FB01B0F0BD002B9AD15205F1
:1009C00037D500F08402802A33D1204601F02CFB79
:1009D00001B0F0BD510514D500F04401402910D1FB
:1009E000204601F083FD01B0F0BDBEF1000F18BF3D
:1009F00010F004003FF47EAF204601F09DFD01B0F1
:100A0000F0BDBEF1000F18BF10F004003FF472AF4C
:100A1000204601F05BFD01B0F0BDBEF1000F18BF34
:100A200010F004003FF466AF204601F0E1F901B098
:100A3000F0BDBEF1000F18BF10F004003FF45AAF34
:100A4000BCF1210F04D1204601F0AAFA01B0F0BD9B
:100A500040297FF44FAF204601F084FC01B0F0BD87
:100A60007047000090F83D0070470000F0B581B07D
:100A7000B0B3044690F83D0028B9002084F83C004B
:100A8000204600F065FA242084F83D0020680168C3
:100A900021F001010160016841F400410160016839
:100AA00021F40041016000F0F1FB48F28041C0F206
:100AB0001E0140F60012656888424FF00001C0F246
:100AC0003D0248F2A16C4FF0000338BF0121904273
:100AD000C0F2010C38BF0123654538BF0B4613B186
:100AE000012001B0F0BD4DF68361C4F21B31A0FBC3
:100AF000011221684FEA924E4B684FF4967623F02C
:100B00003F0343EA92434B6044F6D3530F6A0EFB14
:100B100006F6C1F26203A6FB033627F03F03B709CE
:100B2000654538BF970C7A1C1A430A62CA6948F2B5
:100B3000A0674CF6FF73C0F20107BD4222EA030C26
:100B40000AD801386A00B0FBF2F001306FF31F30B1
:100B5000042898BF04202BE0A368A0F1010E9BB1EC
:100B600019206843BEFBF0F00422013062F31F300D
:100B7000000512D09BB119206843BEFBF0F004229F
:100B8000013062F31F3011E005EB4500BEFBF0F0D1
:100B900001306FF31F300005ECD1012008E005EBB8
:100BA0004500BEFBF0F001306FF31F3040F4004011
:100BB00040EA0C00C8610868D4E9072320F0C000AF
:100BC000104318430860886848F2FF3204F10C07AC
:100BD00090438CCF18431043A6698860C86820F002
:100BE000FF0038433043C860086840F001000860E7
:100BF00000202021206484F83D10206384F83E000A
:100C000001B0F0BD2DE9F04F83B01E4691460F466E
:100C10000446FFF74DFE94F83D1020290CD1022127
:100C20000546C0F21001204601221923009501F06B
:100C300091FD30B1022700E00227384603B0BDE83D
:100C4000F08F94F83C00012801D10227F5E701213B
:100C5000206884F83C100168C90703D1016841F09D
:100C600001010160016807F0FE0A21F400610160E2
:100C7000242084F83D00002020640020CFF6FF707F
:100C80004FF0010B4FF0A008E062B9F1020F98BFDE
:100C90004FF00209206800220168334641F4807158
:100CA000016020464FF00111009501F053FD2168CD
:100CB000002854D1C1F810A0FFF7FAFD21680A46B8
:100CC00052F8143F176894F83D50A02D054620D0E7
:100CD00003F0020007F48063C0181AD1FFF7E8FDA3
:100CE00036B1401BB04288BF84F83D8002E000BFAF
:100CF00084F83D80216848694A6994F83D30A02B0A
:100D000005D000F0020002F480628018E6D001F104
:100D10001402202084F83D0048690B68800743F4E2
:100D200000730B6023D46FF48060022110602046B2
:100D3000C0F21001012219230095012701F00AFDDC
:100D400000287FF47AAF0BF1010BCB45A2D1202014
:100D500084F83D000020012784F83C006DE7086816
:100D60000327C00544BF4FF40070206465E70026E8
:100D7000029610680122029088690221029002986E
:100D80002046C0F2100119230095012701F0E2FC72
:100D900000287FF452AF202084F83D0084F83C60A6
:100DA00000274AE7704700007047000070470000C6
:100DB00070470000704700002DE9F04385B00446FD
:100DC0000020984616460F460490FFF771FD94F8F0
:100DD0003D1020291FD1054640F20800C2F2000054
:100DE00000684BF28951C008C1F2F841A0FB010232
:100DF000DDE90C10120A19235A430492049A013AAD
:100E00000492049A5AB1226893699B07F6D494F825
:100E10003C30012B14D1022005B0BDE8F083002046
:100E20002021206384F83D1084F83E00216C41F0BD
:100E30002001216484F83C00012005B0BDE8F08366
:100E4000012384F83C301368DB0703D1136843F0B7
:100E50000103136013684FF0000C23F40063136068
:100E6000212384F83D30402384F83E30C4F840C04C
:100E700061626085638D0020CFF6FF702385E0629C
:100E8000FBB1606B48B341F6553C41F6153EC0F6E8
:100E9000000CC0F6000E4FF000091032C0E90AC97C
:100EA000C0E90CE9FFF7AEFB08B3202084F83D0051
:100EB00084F83E90206C40F01000206484F83C9050
:100EC000BAE7202084F83D0084F83EC0206C40F052
:100ED0004000206484F83CC0AEE7202084F83D0048
:100EE000002084F83E00216C41F08001A1E723201E
:100EF00000902046394632464346019501F086FA75
:100F000088B1606BFFF72EFA616B206800228A625D
:100F1000016821F48061016022856285016821F009
:100F20000101016088E70020039021684A6903926B
:100F30008A690392039A84F83C004A6842F48072FA
:100F40004A604A6842F400624A6005B0BDE8F08336
:100F500070B586B0044645F200402168C4F2000036
:100F600000268142CDE904660396029601D006B0C0
:100F700070BD41F21805C4F20205296800F5384039
:100F800041F008012960296801F0080101910199E7
:100F9000C0210291122103910321059102A9FFF7BB
:100FA0007DFB6868102140F400106860686840F2BA
:100FB000A84500F40010019001986C20C2F20005D1
:100FC000C4F20200802285E843002846C5E90326D2
:100FD000C5E90566EE61FFF7D9FA002818BFFFF7EB
:100FE000BBF91F200021002265636C6200F07AF8D3
:100FF0001F2000F073F806B070BD000070470000BD
:101000007047000040F20C0040F28851C2F200002C
:10101000C2F2000100780A681044086070470000BE
:1010200080B542F20000C4F20200016841F01001F4
:101030000160032000F066F80F2000F005F800F0D2
:101040002BF8002080BD0000B0B540F20C02C2F2C7
:10105000000240F208011278C2F200014FF47A73E4
:101060000968B3FBF2F20446B1FBF2F1084600F066
:10107000D5FA0F2C4FF001050CD858B94FF0FF30BE
:1010800021460022002500F02DF840F21000C2F2A7
:10109000000004602846B0BD82B041F21800C4F2DE
:1010A00002000168022241F001010160016801F0C3
:1010B000010101910199416841F08051416040680E
:1010C00000F08050009000980420C4F201000168F4
:1010D00062F31A61016002B07047000080B501F050
:1010E000C3FE80BD70B514460D46064601F0CCFE29
:1010F0002946224601F0F4FC0146304601F0CCFEC0
:1011000070BD000080B501F0D9FE80BD2DE9F0432F
:1011100081B0002800F0898042F20008C4F2020881
:101120000446D8F800000D4600F0070088420CD2B3
:10113000D8F8000020F007002843C8F80000D8F8CD
:10114000000000F00700A8426FD1206841F20409B6
:101150008107C4F2020917D5410705D5D9F8001057
:1011600041F4E061C9F80010010705D5D9F8001075
:1011700041F46051C9F80010D9F80010A26821F0BC
:10118000F0011143C9F80010C00745D1D8F800009C
:1011900000F00700A8420CD9D8F8000020F00700A2
:1011A0002843C8F80000D8F8000000F00700A84263
:1011B0003BD12068410707D5D9F80010E26821F437
:1011C000E0611143C9F80010000708D5D9F8000004
:1011D000216920F4605040EAC100C9F8000000F025
:1011E00067F8D9F8001043F2F632C1F30311C0F6E4
:1011F0000002515C40F2080220FA01F140F21000B6
:10120000C2F200000068C2F200021160FFF71CFF8A
:10121000002001B0BDE8F0836068022809D00128F1
:1012200029D159F8041C890307D4012001B0BDE875
:10123000F08359F8041C8901F7D5D9F8001021F082
:1012400003010843C9F80000FFF732FB064641F2EC
:10125000883700BFD9F80000616800F00C00B0EBDF
:10126000810F93D0FFF724FB801BB842F2D90320F3
:1012700001B0BDE8F08359F8041C8907D5D5DCE737
:1012800040F20800C2F200000068704780B5FFF726
:10129000F7FF41F20401C4F20201096843F2064279
:1012A000C1F30221C0F60002515CC84080BD0000BD
:1012B00041F2040CC4F2020CDCF8003003F00C0024
:1012C000082841F20020C0F27A0018BF7047C3F32B
:1012D00083420AA18A5CD90305D440F60010C0F20B
:1012E0003D0050437047DCF8001008A3C1F34041B3
:1012F000595C5043B0FBF1F0704700BF0203040596
:10130000060708090A0B0C0D0E0F10100102000051
:101310002DE9F04182B0002800F0C4800446007836
:1013200041F20006C007C4F2020643D0706800F024
:101330000C00042817D0706800F00C00082802D1B7
:101340007068C0030FD465682DB1B5F5A02F10D01B
:10135000B5F5803F11D0306820F4803030603068BF
:1013600020F480200CE03068800323D5606808BB3F
:1013700098E0306840F480203060306840F480307D
:101380003060FFF795FA002D054610D030688003D5
:1013900010D4FFF78DFA401B6428F7D904E100BF91
:1013A000FFF786FA401B64284FF0030077D83068B7
:1013B0008003F5D42078800718D5706810F00C0FE2
:1013C00007D0706800F00C00082826D17068C003B0
:1013D00023D43068800702D52069012862D13068A3
:1013E000616920F0F80040EAC10030602078000711
:1013F0003DD5A06938B30020C4F242200121C0F8D5
:101400008014FFF755FA0546706A80072DD4FFF760
:101410004FFA401B0228F7D9C6E02069002840F2A5
:101420000000C4F2422000F0968001210160FFF725
:101430003FFA054630688007D1D4FFF739FA401BE0
:101440000228F7D9B0E00020C4F242200021C0F801
:101450008014FFF72DFA0546706A800707D5FFF75D
:1014600027FA401B0228F7D99EE001F051FB2078B3
:1014700040071BD4E5698DB1706800F00C000828A6
:1014800047D1012D0ED07068216A00F480328A4263
:1014900008D1616A00F47010884203D1002002B0C4
:1014A000BDE8F081012002B0BDE8F081F06910F0E4
:1014B000805808D1F06940F08050F061F06900F088
:1014C00080500190019847F20007C4F20007386885
:1014D000C00510D4386840F480703860FFF7E8F930
:1014E000054600BF3868C00505D4FFF7E1F9401B89
:1014F0006428F7D958E0E5681DB1052D3CD0012DD1
:101500003ED0306A20F001003062306A20F00400E2
:1015100039E00027C4F2422700203866FFF7C8F9F7
:10152000022D05460CD100BF3068800154D5FFF76D
:10153000BFF9401B02284FF00300F5D9AFE700BF09
:1015400030688001AAD5FFF7B3F9401B02284FF09D
:101550000300F5D9A3E700210160FFF7A9F90546CB
:10156000306880077FF542AFFFF7A2F9401B0228E1
:101570004FF00300F4D992E7306A40F00400306283
:10158000306A40F001003062FFF792F9002D054605
:1015900041F2883714D000BF306A800713D4FFF7B8
:1015A00087F9401BB842F7D9032002B0BDE8F081AB
:1015B000FFF77EF9401BB8424FF003003FF66FAFD4
:1015C000306A8007F4D4B8F1000F7FF453AFF069AC
:1015D00020F08050F0614DE7206AB0F5803F05D1E2
:1015E0007168A26821F40031114371607168626A08
:1015F00021F4741110430843706001203866FFF72E
:1016000057F90446306880013FF548AFFFF750F9BD
:10161000001B02284FF00300F4D940E780B501F029
:101620008FFA80BD10B590F83C20012A4FF00202DD
:1016300031D0012380F83C3080F83D200268D2F898
:1016400004E0D2F808C00C682EF07003234340F287
:10165000FF74C4F20004A242536005DCB2F1804F73
:101660000ED040F2004307E042F60043C4F201030B
:101670009A4205D040F60003C4F200039A4204D116
:1016800049682CF08003194391600121002280F801
:101690003D1080F83C20104610BD0000002804BF1B
:1016A0000120704710B5044690F83D0028B900208D
:1016B00084F83C00204600F01FF8022084F83D002A
:1016C0002068211D01F082FA012084F8460084F888
:1016D0003E0084F83F0084F8400084F8410084F81C
:1016E000420084F8430084F8440084F8450084F8FC
:1016F0003D00002010BD000081B0006840F20041B4
:10170000C4F20001884201D001B0704741F21C00D0
:10171000C4F20200016841F002010160006800F0BB
:1017200002000090009801B07047000010B5044618
:1017300090F83C0001284FF0020008BF10BD0122C4
:1017400084F83C2084F83D0020684FF67773826867
:101750009A4382600A683F2A14DD5F2A18DD602AF6
:1017600028D0B2F5005F2DD0702A40D1D1E9012CEC
:10177000CB68614601F082FA2068816841F0770108
:10178000816034E01F2A0FDC92B1102A10D02EE0C5
:10179000402A23D0502A2AD14B68CA68194601F042
:1017A0003DFB2068502120E0202A01D0302A1ED1A4
:1017B00011461AE04B68CA68194601F041FB2068DF
:1017C000602112E0D1E9012CCB68614601F056FAA4
:1017D0002068816841F48041816008E04B68CA68F4
:1017E000194601F01BFB2068402101F053FA01204B
:1017F00084F83D00002084F83C0010BD80B586B020
:10180000016840F20040C4F2000081424FF0000144
:10181000CDE90411CDE9021101D006B080BD41F23D
:101820001801C4F202010A6800F5843042F008028F
:101830000A60096801F008010191019901210291F2
:1018400002210391059102A9FEF728FF06B080BD91
:10185000B0B5044690F83C00012804BF0220B0BD9A
:101860004FEAB2000D460121032884F83C1036D817
:10187000DFE800F0020A12222068294601F012FA7D
:10188000206850F8181F0EE02068294601F03AFA47
:10189000206850F8181F16E02068294601F066FA03
:1018A000206850F81C1F41F008010160016821F018
:1018B0000401016029690FE02068294601F088FAD7
:1018C000206850F81C1F41F400610160016821F498
:1018D00080610160296909020268114301600020EA
:1018E00084F83C00B0BD0000002804BF0120704710
:1018F00010B5044690F83D0028B9002084F83C005B
:10190000204600F01FF8022084F83D002068211DC9
:1019100001F05CF9012084F8460084F83E0084F868
:101920003F0084F8400084F8410084F8420084F8C5
:10193000430084F8440084F8450084F83D0000200A
:1019400010BD000070470000B0B5044641B1082941
:1019500009D0042914BF04F1410004F13F0004E060
:1019600004F13E0001E004F14000007801281CBFB2
:101970000120B0BD022041B1082909D0042914BFBB
:1019800084F8410084F83F0004E084F83E0001E060
:1019900084F84000206842F644450122C4F2010563
:1019A00001F05AF92068A5F14401884203D1296861
:1019B00041F40041296040F2FF71C4F20001884205
:1019C00005DCB0F1804F0ED040F2004107E042F656
:1019D0000041C4F20101884205D040F60001C4F282
:1019E0000001884206D1816801F00701062904BF81
:1019F0000020B0BD016841F0010101600020B0BDD0
:101A0000FEE7000080B540F2EC40C2F20000FEF7B5
:101A100059FF80BDC16AB1F52A0F02D10121C1620F
:101A20007047C16AB1F12A4F18BF70470821C162DF
:101A30007047000010B582B000210191406A40F269
:101A40000801C2F2000190F83DC009684BF28952CA
:101A5000C908C1F2F842A1FB0212110A2322514324
:101A6000019100BF019939B10199013901910168D2
:101A700009688905F6D403E0016C41F02001016496
:101A8000446B4FF0000E002C1CBF0021A162816B43
:101A900000291CBF00228A620268002C136823F40C
:101AA00080631360A0F82AE018BFC4F834E000296E
:101AB0001CBF00234B63116821F00101116090F8F5
:101AC0003D1060290AD1202180F83D10002180F8C6
:101AD0003E100164FEF7F2FE02B010BD0CF02801CA
:101AE00028290DD1116841F001011160116841F4FC
:101AF0008061116000210163282180F83D1005E01C
:101B0000202180F83D10002180F83E10FEF7A8FF4C
:101B100002B010BD80B5406A416B00291CBF002295
:101B20008A62816B00291CBF00228A6201680A68F0
:101B300022F480620A6000212022418580F83D2045
:101B400080F83E10016C41F010010164FEF788FF3F
:101B500080BD000010B5446A94F83D2094F83EE042
:101B6000D4F82CC02068616B4368002923F44073CB
:101B700043601CBF00238B62A16B00291CBF0023A4
:101B80008B6202F02101212906D0BEF1200F17D16E
:101B900002F02201222913D141682A2A21F400618E
:101BA00041604FF00000608524D0292A2AD12120ED
:101BB0002063282084F83D002046FFF721FA21E029
:101BC00094F83E10002908BF10BD618D012903D192
:101BD000016821F4806101604168BCF1070F21F4C4
:101BE0004071416014DCBCF12A4F17D01CF5803FD6
:101BF00014D017E022202063282084F83D002046DE
:101C0000FFF7FCF92068416841F44071416010BD64
:101C1000BCF1200F02D0BCF1080F03D1016841F4E0
:101C200000710160416821F480514160416821F4F4
:101C30000061416000206085216C19B12046FEF7EB
:101C40000FFF10BD202184F83D1094F83E1084F859
:101C50003E00402905D1002020632046FFF7A8F868
:101C600010BD122020632046FFF79EF810BD000033
:101C700010B5044690F83D0094F83E10402901D07C
:101C8000102906D1222804D121680A6822F40062B2
:101C90000A6000F02801282905D1002020632820AF
:101CA00084F83D000EE021686028496808D011F4EE
:101CB000006005D1202084F83D00002084F83E001B
:101CC000002020632068416809051AD494F83D106B
:101CD000602935D1202184F83D100021216441691B
:101CE000490605D50069616A0870606A0130606262
:101CF0002068016821F0010101602046FEF7DEFD49
:101D00003EE0416821F400614160606B90F8211071
:101D1000012922D1A06B41F63521C0F600014163B3
:101D2000FEF720FB60B320684169490605D50069CC
:101D3000616A0870606A013060622168A06B16E019
:101D40004169490605D50069616A0870606A013019
:101D500060622046FEF784FE12E041F63521C0F6AF
:101D600000014163FEF7FEFA50B12168606B0A681A
:101D700022F001020A60202184F83D10416B88475F
:101D8000206C000704D02068416821F4E0614160C4
:101D900094F83D10206C282911D110F0040008BFE0
:101DA00010BD0020CFF6FF70E062002020212063EC
:101DB00084F83D1084F83E002046FEF7F3FF10BD86
:101DC0000268516949054FF000010FD56FF4806337
:101DD00053612022016380F83D2080F83E10026CA0
:101DE00042F00402026480F83C100121084670476A
:101DF00080B5C16A428D042A07D10168426A4B68E6
:101E000023F480634B60096911E0428D032A16D1E7
:101E100002680229536823F48063536005D00429C3
:101E200003D0116821F4806111601169426A117058
:101E3000416A01314162418D0139418580BD428D48
:101E4000022A11D101390F2916D8DFE801F0081054
:101E50001510151515151515151515151508016805
:101E60000A6822F480620BE00168426ACBE70168ED
:101E70000A6842F4806203E001680A6842F4007272
:101E80000A600168426A09691170416A02684B1C64
:101E90004362438D013B438512694A70416A02687F
:101EA00001314162418D01394185516821F4407110
:101EB0005160202180F83D1090F83E200021402AFA
:101EC00080F83E1003D10163FEF772FF80BD12213E
:101ED0000163FEF769FF80BD10B5044690F83D0030
:101EE000222836D1608D042812D32068616A0069E7
:101EF0000870606A01306062608D01386085608DB5
:101F0000032826D12068416821F48061416010BD1A
:101F1000E16A01281DD8022908BF10BD204600F043
:101F200099FC2168B0B1486820F4E0604860086915
:101F3000616A0870606A01306062608D0138608596
:101F4000202084F83D00002084F83E002046FEF763
:101F500087FD10BD086820F480600860486820F4A0
:101F6000E06048600869616A0870606A0130606218
:101F7000608D01386085202084F83D0094F83E1083
:101F80000020402984F83E0004D120632046FEF75B
:101F90000FFF10BD122020632046FEF705FF10BD85
:101FA00080B5C16A90F83D20212A18BF80BD428DBE
:101FB0004AB1416A026811F8013B13614162418DE7
:101FC0000139418580BD11F5803F18BF082919D11D
:101FD00001684A6822F4E0624A600A6842F40072CA
:101FE0000A6000212022016380F83D2090F83E2005
:101FF00080F83E10402A02D1FEF7DCFE80BDFEF7DD
:10200000D5FE80BD2029E3D001684A6822F4E06251
:102010004A6011210163002180F83E10202180F8E0
:102020003D10FEF7C3FE80BD80B590F83D3090F8BE
:102030003EC0C26A212B1DD1018DD9B912F5803F56
:1020400018BF082A2AD101684A6822F4E0624A606F
:102050000A6842F400720A6000212022016380F8BD
:102060003D2090F83E2080F83E10402A13D1FEF724
:10207000A1FE80BD212B05D0222B08BFBCF1400F53
:1020800000D080BD418DD9B190F83E1040291DD1BE
:1020900000F068F980BDFEF789FE80BD202AD2D00D
:1020A00001684A6822F4E0624A601121016300215C
:1020B00080F83E10202180F83D10FEF777FE80BDAD
:1020C0000068416821F48061416080BD416A026816
:1020D00011F8013B13614162418D0139418580BD99
:1020E0000168426B436CDBB20B610AB1926A2AB998
:1020F000806B38B1806A002808BF7047486840F498
:10210000006048607047000081B090F83E30D0F821
:102110002CC0026B90F83D10222919D1402B016D83
:1021200008BF002914D0016DE1B90169B1F5404F34
:1021300018D10021009101684A6900928A690092D1
:10214000009A0A6842F480720A60016D0131C2E0AF
:102150000021009100684169009180690090009819
:1021600001B07047418D81B1418D01291AD1BCF177
:10217000200F18BFBCF1080F50D101680A6822F483
:1021800080620A600022009202E000210091016852
:102190004A6900928A690092009A0A6842F40072C1
:1021A0000A6097E0418D022917D1BCF1100F5CD86D
:1021B0000121142201FA0CF1C0F20102114254D0A3
:1021C00001680A6842F480620A60002200924A694B
:1021D000009289690091009957E00268116841F402
:1021E000806111605168090512D5ACF101031F2B04
:1021F00007D80121994048F28103C8F2000319422F
:1022000002D11CF5803F03D1516841F480515160E7
:102210000021009151690091916959E01CF5803FBE
:102220000ED101680A6822F480620A604A681205C9
:10223000A8D50A6822F480620A600022009244E075
:10224000BCF1010F01D0122A97D0BCF1100F34D885
:102250000121142201FA0CF1C0F2010211422CD02A
:1022600001680A6842F480622BE001680A6842F45F
:1022700000620A60002200924A6900928A69009214
:10228000009A0A6822F480620A60026851680905AF
:1022900020D5ACF101031F2B07D80121994048F24A
:1022A0008103C8F20003194202D11CF5803F11D10D
:1022B000516841F4805151600CE001680A6822F4D1
:1022C00080620A600021009101684A690092896970
:1022D000009100990021016501B0704790F83E100F
:1022E00040290AD1016D426C002902F0FE012ED076
:1022F000006841F00101016170470169B1F5804F4B
:1023000017D190F83D10426C212902F0FE0218BF4F
:102310000132416B03681A6109B1896A19B9816B8D
:10232000A1B1896A91B10068416841F400614160DE
:102330007047016D71B1016D012918BF70470168C7
:10234000406C062202EAD010F13008617047006844
:10235000016170470168406C062202EAD010F0303B
:102360000861704780B590F83D10026D3AB1026D7A
:10237000012A0FD10168826CD2B20A611AE0C26CE4
:10238000816C012A12D10268C9B21161016D02315A
:10239000016580BD026D022A18BF80BD22290DD1C2
:1023A00001680A6842F480720A6003E00268C1F3BF
:1023B00007211161016D0131016580BD428D212927
:1023C0000AD14AB1416A026811F8013B13614162C6
:1023D000418D0139418580BD2129428D08BF002AE8
:1023E00000D080BD01684A6822F4E0624A600A6851
:1023F00042F400720A6000212022016380F83D202F
:1024000080F83E10FEF7D6FC80BD00002DE9F043B9
:1024100083B0044600680D4601680A9F0B9E41F494
:10242000807199469046016020464FF001110022CC
:102430003B46009600F08EF950B120680068C00558
:1024400044BF4FF400702064032003B0BDE8F08364
:10245000206805F0FE0101610221C0F20101204661
:102460003A46334600F0B0F918B1012003B0BDE898
:10247000F083002002902068324641690291806911
:10248000394602900298204600F00CFA40B1206CC8
:102490000428EAD12068016841F400710160E4E792
:1024A000B9F1010F0AD020684FEA182101612046D6
:1024B0003946324600F0F6F90028E8D120685FFA84
:1024C00088F10161002003B0BDE8F083418D00294F
:1024D00008BF70470168426A09691170416A013199
:1024E0004162418D013941857047000080B590F807
:1024F0003D10428D002A08BF80BD0268436A126900
:102500002A291A70426A02F101024262428DA2F146
:1025100001024285428D08BF002A00D080BD0168BB
:102520004A6822F480624A6022210163282180F8EF
:102530003D10FEF763FD80BD418D002908BF704747
:10254000416A026811F8013B13614162418D013912
:102550004185704780B590F83DC0418D002908BF86
:1025600080BD436A016813F8012BBCF1290F0A6191
:102570004362428DA2F101024285438D08BF002BC8
:1025800000D080BD4A6822F480624A602121016344
:10259000282180F83D10FEF733FD80BD80B582B064
:1025A00090F83D2002F02802282A15D102685368CD
:1025B00023F480635360012222EA910309064FF05D
:1025C000180158BF0C21425A002180F83C101946CE
:1025D000FEF776F902B080BD0021019102685369CF
:1025E000019392690192019A80F83C1002B080BD7B
:1025F000B0B582B090F83D5001680446486820F4B8
:10260000E06048600020019048690190086840F04F
:10261000010008600198086820F48060086048683C
:1026200000053ED545F008002A281CD1A06B0268A1
:1026300052686285628D1AB1226C42F004022264F3
:102640004A6822F400624A60FDF7DEFE012828D0C5
:10265000A06B41F63521C0F600014163FDF782FE13
:10266000F8B1A06B1BE0606B026852686285628DF6
:102670001AB1226C42F0040222644A6822F4006219
:102680004A60FDF7C1FE01280BD0606B41F6352191
:10269000C0F600014163FDF765FE10B1606B416B50
:1026A0008847608DF8B120684169490708D50069FD
:1026B000616A0870606A01306062608D013860850F
:1026C00020684169490608D50069616A0870606A36
:1026D00001306062608D01386085608D18B1206CBA
:1026E00040F004002064206C20B12046FFF7C0FABF
:1026F00002B0B0BD2A2D07D100202063282084F825
:102700003D002046FEF77AFC94F83D0028280FD1C2
:102710000020CFF6FF70E06200202021206384F8C3
:102720003D1084F83E002046FEF73CFB02B0B0BDF1
:10273000222D206B18BF222809D1002020212063E0
:1027400084F83D1084F83E002046FEF757FC02B0A6
:10275000B0BD00002DE9F047DDF820801D46914610
:10276000824601F47F078EB25C1C00BFDAF80000DD
:10277000B7F5803F14BF1830143000683040801B1C
:10278000B0FA80F0400948451BD1002CEED0FEF78E
:102790008FF81DB1A0EB0800A842E7D90020202146
:1027A000CAF830008AF83D108AF83E00DAF8401086
:1027B00041F02001CAF840108AF83C000120BDE831
:1027C000F0870020BDE8F0872DE9F041044600685D
:1027D000984643698FB203EA0701B94202D100204B
:1027E000BDE8F0814169490512D41646551C00BF69
:1027F00035B1FEF75DF816B3A0EB0800B0421ED865
:10280000206841693940B942E9D041694905EFD5AD
:10281000016841F4007101606FF480614161002042
:102820002021206384F83D1084F83E00216C41F0A3
:102830000401216484F83C000120BDE8F0810020FF
:102840002021206384F83D1084F83E00216C41F083
:102850002001EEE781B00021009140F20801C2F2B0
:10286000000109684BF28952C908C1F2F842A1FB84
:102870000212110A01EB8101009100BF0099013998
:102880000091009931B1016809688905F6D40020EA
:1028900001B07047016C41F020010164012001B0DA
:1028A00070470000F0B581B004460068406900063A
:1028B00024D415460E464F1C04E000BF2068406932
:1028C00000061BD42046FFF77BFAA0B9002FF5D0F5
:1028D000FDF7EEFF16B1401BB042EFD900202021DA
:1028E000206384F83D1084F83E00216C41F0200103
:1028F000216484F83C00012001B0F0BD002001B04B
:10290000F0BD000080B582B041F21400C4F20200B4
:102910000168002241F0010101600068002100F01F
:102920000100019001981020FEF7DCFB1020FEF75B
:10293000D5FB02B080BD00002DE9F04186B0002635
:1029400041F21800CDE90466CDE90266C4F2020046
:10295000016841F2000441F0100101600168C4F215
:10296000010401F01001019101990168002241F078
:102970000801016001684FF4804801F008010191ED
:102980000199016841F00401016000684FF4804141
:1029900000F00400019001982046FDF783FF4FF4FA
:1029A000005002ADCDE902060127204629460497D2
:1029B000FDF774FE0220059020462946CDE90287E6
:1029C0000496FDF76BFE06B0BDE8F08180B540F2DD
:1029D000EC4045F20041C2F20000C4F2000141F6B1
:1029E000802200234FF4804CC0F2060280E80E00E3
:1029F000C0E9033CC0E90533C0E90733FEF736F808
:102A0000002818BFFDF7A8FC80BD000010B58EB0EF
:102A100040F2405040F200420021C2F20000C4F2F5
:102A200000024F2363240D91CDE90B11CDE909116B
:102A3000CDE90711CDE90511CDE90311CDE901116A
:102A4000C0E90023C0E9021401618161FEF726FE9E
:102A5000002818BFFDF780FC4FF480500A9040F228
:102A60004050C2F200000AA9FEF760FE002818BF1D
:102A7000FDF772FC40F24050C2F20000FEF734FF56
:102A8000002818BFFDF768FC40F240500024C2F255
:102A9000000008A9CDE90844FEF7C4FD002818BFCE
:102AA000FDF75AFC6020CDE9010440F24050C2F22B
:102AB000000001A9082203940594FEF7C9FE00282E
:102AC00018BFFDF749FC40F24050C2F20000FEF78B
:102AD00095FE0EB010BD0000FEE70000FEE700000E
:102AE00000F0070080F00703042B28BF04234FF0F9
:102AF000FF3C03380CFA03F338BF002099438140B0
:102B00000CFA00F022EA000008437047704700000A
:102B100081B040F20800C2F20000006844F6D351D0
:102B2000C1F26201A0FB0101480A009000BF0098B9
:102B3000411E00280091F9D101B070477047000094
:102B4000B0B501380024B4EB106F1CBF0120B0BD3C
:102B50004EF21005CEF2000568604FF0FF300F21F5
:102B600000F09AF90720AC6028602046B0BD000054
:102B700080B5FEF747FA80BDB0B590B006AC2046F0
:102B80002821FDF721FB0220069001200A90102049
:102B900000250B9020460595CDE90355CDE901555B
:102BA0000D95FEF7B5FB68B90F20CDE9010501A829
:102BB0000021CDE903550595FEF7A8FA002804BFCA
:102BC00010B0B0BDFDF7C8FB7047000010B540F273
:102BD000FF7E0368C4F2000E42F6004C7045C4F25A
:102BE000010C05DCB0F1804F0AD040F2004203E056
:102BF000604505D040F60002C4F20002904203D1C5
:102C00004A6823F070031343704505DCB0F1804F30
:102C10000AD040F2004203E0604505D040F60002D1
:102C2000C4F20002904203D1CA6823F440731343F4
:102C300023F080024B69D1F800E08C681A436045AC
:102C40000260C462C0F828E002D10969CCF83010F3
:102C50000121416110BD000080B501F01F014FF05E
:102C6000010CD0F820E00CFA01F32EEA0303036212
:102C7000036A02FA01F11943016280BDD0F808C06D
:102C800011432CF47F4C41EA032141EA0C0181609D
:102C900070470000826822F07002114341F0070182
:102CA00081607047B0B5026A42F6004422F001022A
:102CB0000262026AD0F804E0D0F818C08B6822F0F3
:102CC0000202C4F20104A04242EA030205D1CB6829
:102CD00022F00C0223F004031A430B68A04207D130
:102CE000D1E905452EF4407E44EA0E0444EA050E7F
:102CF0002CF073052B43C0F804E0836149684163FD
:102D00000262B0BDB0B5026A42F6004422F0100281
:102D10000262026AD0F804E0D0F818C08B6822F092
:102D20002002C4F20104A04242EA031207D1CB6898
:102D30006FF0400522F0C00205EA03131A430B6846
:102D4000A04207D1D1E905452EF4406E4EEA840435
:102D500044EA850E2CF4E64545EA0323C0F804E076
:102D60008361496881630262B0BD0000B0B5026A48
:102D700042F6004422F480720262026AD0F804E053
:102D8000D0F81CC08B6822F40072C4F20104A04287
:102D900042EA032207D1CB6840F2FF451B0222F42E
:102DA0004062AB431A430B68A04207D1D1E9054505
:102DB0002EF4405E4EEA041444EA051E2CF073051E
:102DC0002B43C0F804E0C3614968C1630262B0BD2F
:102DD000B0B5026A42F6004522F480520262026AED
:102DE0004368D0F81CE00C68D1F808C0C4F20105B3
:102DF000A84204D14D6923F4804343EA85132EF49D
:102E0000E64545EA04254360C56122F4005249685D
:102E100042EA0C3201640262B0BD0000D0F820C06A
:102E2000036A23F001030362836923F0F00343EA9A
:102E300002122CF00A0319438261016270470000FC
:102E4000036A23F0100303628369D0F820C023F4DF
:102E5000704343EA02322CF0A00343EA011182617D
:102E600001627047FEE70000002848BF704700F08D
:102E70001F01012202FA01F14EF200124009CEF2C6
:102E8000000242F8201070474EF60C50CEF20000BF
:102E90000068C0F3022070474EF6145300F00F0292
:102EA000CEF2000309011A4400F16043B0F1FF3F84
:102EB000C8BF03F564421170704700004EF60C5114
:102EC000CEF200010A684FF6FF031A4060F30A22AF
:102ED00042F0806040F0FD700860704741F20004ED
:102EE000C4F20104FEF79CF8FFF746FEFFF724FD4D
:102EF000FFF76CFDFFF706FDFFF788FD00F010F906
:102F000000F006F900F0D6F801204FF0010800F0BB
:102F10008DF9022000214FF0000900F08DF940F2F8
:102F2000000AC2F2000ADAE9001252A000F04CFADC
:102F30001E20002100F080F9DAE900124FA000F015
:102F400043FA00F085F9FDF7A5F901284FF00002DA
:102F500020464FF4804188BF0122FDF7A3FC40F2D8
:102F60004055C2F2000528460821FEF7EDFC28680E
:102F700040F2A44B40F27C06C2F2000BC2F2000603
:102F800040A7C0F83C9003E000F01EFA00F060F9A2
:102F9000FDF780F9012829D19BF8000030BB30787B
:102FA0008BF80080411CC8B2042888BF0021C8B239
:102FB00004283170ECD8DFE800F0030E3C475200E3
:102FC00028680021C0F83C90022000F035F9DAE9C9
:102FD000001236A0D8E728681421C163022000211E
:102FE00000F02AF9DAE900122EA0CDE7FDF752F938
:102FF00003281BD19BF80000C0B9022000218BF8E8
:10300000008000F019F9DAE90012384600F0DCF926
:1030100000F01EF94FF47A70FDF72CFB20464FF4B8
:1030200080410022FDF73EFCB2E700BF8BF8009024
:10303000AEE728682821C1630220002100F0FCF8D7
:10304000DAE9001215A09FE728683C21C16302203D
:10305000002100F0F1F8DAE900120EA094E72868E8
:103060005021C1630220002100F0E6F8DAE90012E5
:1030700006A089E74275656E6F0000004C696768BD
:1030800074000000536C656570000000506F776538
:1030900072203400506F776572203300506F77656F
:1030A00072203200506F776572203100506F776563
:1030B0007220300080B540F28400C2F200004FF46C
:1030C0008461FDF781F880BD832898BF3F2900D92E
:1030D000704740F28202C2F2000201F00703C90801
:1030E000127841EA41114FF0010C00EB810040F2EF
:1030F0008401012A0CFA03F2C2F2000103D10B5C35
:103100001A430A5470470B5C23EA02020A547047C0
:1031100080B5A12000F01EF9C82000F01BF980BD89
:1031200010B540F2EC40C2F20000782105224FF4C5
:103130007A73FDF767FD00281CBF002010BD6420D6
:10314000FDF798FAAE2000F005F9D52000F002F95D
:10315000F02000F0FFF8A82000F0FCF83F2000F07D
:10316000F9F8D32000F0F6F8002000F0F3F8402042
:1031700000F0F0F88D2000F0EDF8142000F0EAF8EF
:10318000202000F0E7F8002000F0E4F8A02000F094
:10319000E1F8C02000F0DEF8DA2000F0DBF840F2C1
:1031A000A544C2F20004207818B1012804D10220FD
:1031B00000E0122000F0CEF8812000F0CBF820785B
:1031C00018B1012804D18F2000E0CF2000F0C2F810
:1031D000D92000F0BFF8F12000F0BCF8DB2000F0AF
:1031E000B9F8402000F0B6F8A42000F0B3F8A6200B
:1031F00000F0B0F82E2000F0ADF8AF2000F0AAF8F3
:1032000040F27E00C2F200000021018040F2800006
:10321000C2F20000018040F28200C2F200000170A0
:10322000FFF748FF00F014F8012010BD40F28201C2
:10323000C2F200010870704740F27E02C2F2000242
:10324000108040F28000C2F2000001807047000050
:10325000B0B540F284040025C2F20004A5F150008C
:10326000C0B200F077F8002000F074F8102000F0F1
:1032700071F8204600F08CF80135082D04F1840423
:10328000ECD1B0BD2DE9F04F83B040F27E06C2F222
:1032900000063388CFB23B44832B0AD840F2800427
:1032A000C2F200042388C1F3072B0BEB03013F2973
:1032B00003D9002003B0BDE8F08FBBF1000F0292EC
:1032C000009040D0009840F2820820380BFB00F0BC
:1032D0000025C2F20008019003E000BF01355D4502
:1032E00031D0002FFAD001980299284431F810A06B
:1032F0004FF000091AE000BF98F800002188B0FAEA
:1033000080F0400988F80000308829444844C0B261
:10331000C9B2FFF7D9FE98F80000B0FA80F0400972
:1033200088F8000009F101094F45D7D00AFA09F0E1
:103330000004E1D53088218848442944C0B2C9B28C
:10334000FFF7C2FEEEE7308838443080009803B0C3
:10335000BDE8F08F10B584B040F2EC44C2F2000436
:103360008DF80F002046FDF77DFB2028FAD10DF1E6
:103370000F00009040F2EC400124C2F200007821DE
:10338000002201230194FDF717FD04B010BD0000D9
:10339000B0B582B040F2EC450446C2F2000500BF71
:1033A0002846FDF75FFB2028FAD140F2EC40842547
:1033B000C2F2000078214022012300940195FDF71C
:1033C000FBFC02B0B0BD000070B503787BB11446C1
:1033D0000D46461CD8B229462246FFF753FF16F881
:1033E000011C884205D116F8013B002BF2D10020C8
:1033F00070BD084670BD0000000000000000010222
:10340000030406070809000000000102030400008D
:1034100000000000000000000000000000000000AC
:10342000000000000000000000000000000000009C
:10343000000000000000000000000000000000008C
:103440000000E003E003E003E003E003E003E00347
:10345000E003C003C003C001C001C001C001C0013E
:10346000000000000000E003E003E00300000000B3
:103470000000000000003C1E3C1E3C1E3C1E3C1E8A
:103480003C1E3C1E00000000000000000000000088
:10349000000000000000000000000000000000002C
:1034A00000000000000000000000CE01CE03DE039B
:1034B0009E039C039C07FF3FFF7F3807380F780F60
:1034C000780F780EFFFFFFFFF01EF01CE01CE03CC1
:1034D000E03DE03900000000000000000000FC03B7
:1034E000FE0FEE1FE01EE01EE01EE01EE01FE00FDC
:1034F000E007F003FC01FE01FE01FE01FE01FE01FA
:10350000FE01FE3DFC3FF00FE001E0010000000085
:103510000000033E07F78FE78EE79EE3BCE3B8E7C2
:10352000F8E7F0F7E03FC001FF03FF07F307F30FF1
:10353000F31EF33CF338F3787FF03FE00000000027
:10354000000000000000E007F80F780F781F781FD8
:10355000781F780FF00FE00F801FC37FC3FBE7F3E6
:10356000F7F1F7F0FFF07FF03EF87F7CFF3FEF1FB1
:1035700000000000000000000000E003E003E003A2
:10358000E003E003C003C0010000000000000000F1
:10359000000000000000000000000000000000002B
:1035A00000000000000000000000000000003F00DC
:1035B0007C00F001E001C003C00780078007800F96
:1035C000000F000F000F000F000F000F800F80078B
:1035D0008007C007C003E001F0017C003F000F003E
:1035E0000000007E001FC007C003E001F001F000F2
:1035F000F000F80078007800780078007800780013
:10360000F800F000F000F001E001C003C007001F67
:10361000007E00780000E003C003C001CE39FF3F08
:103620007F3F20037003F807780F3C1F3806000027
:10363000000000000000000000000000000000008A
:10364000000000000000000000000000000000007A
:10365000000000000000C001C001C001C001C001A5
:10366000C001C001FFFFFFFFC001C001C001C001D8
:10367000C001C001000000000000000000000000C8
:10368000000000000000000000000000000000003A
:10369000000000000000000000000000000000002A
:1036A000E003E003E003E003E001E001E001C0012A
:1036B0008003000000000000000000000000000087
:1036C0000000000000000000FE3FFE3F0000000080
:1036D00000000000000000000000000000000000EA
:1036E00000000000000000000000000000000000DA
:1036F00000000000000000000000000000000000CA
:103700000000000000000000E003E003E003E0032D
:10371000000000000000000000000F000F001E006D
:103720001E003C003C0078007800F000F000E00152
:10373000E001C003C00380078007000F000F001ED8
:10374000001E003C003C0078007800F00000F0070C
:10375000F80F7C1F3E3E1E3C1F7C1F7C0F780F78AD
:103760000F780F780F780F780F781F7C1F7C1E3C26
:103770003E3E7C1FF80FF007000000000000000034
:103780000000F000F007F03FF03FF001F001F00121
:10379000F001F001F001F001F001F001F001F001A1
:1037A000F001F001F001F001FF3FFF3F00000000D9
:1037B000000000000000E00FF83F7C3C3C003E00B1
:1037C0003E003E003C003C007C00F800F001E003BD
:1037D000C0078007000F001E003E003CFE3FFE3F7A
:1037E00000000000000000000000F00FF81F7C1C2B
:1037F0003E003E003E003C003C00F800F00FF80F99
:103800007C003E001E001E001E001E003E007C1CB0
:10381000F81FE01F0000000000000000000078001A
:10382000F800F800F801F803F807F807780F781E99
:10383000781E783C78787878FFFFFFFF7800780072
:103840007800780078007800000000000000000098
:103850000000FC1FFC1FFC1F001E001E001E001E9F
:10386000001EE01FF81FFC007C003E003E001E0012
:103870003E003E003C007C1CF81FE01F00000000E2
:10388000000000000000FC01FE078E0F001F001E5C
:10389000003E003C003CF83DFC3F3E7F1F7E0F3C5D
:1038A0000F3C0F3C0F3C0F3E1F1E3E1FFC0FF00352
:1038B00000000000000000000000FF3FFF3FFF3F4E
:1038C0000F001E001E003C0038007800F000F000E1
:1038D000E001E001C003C0038007800F800F000FEC
:1038E000001F001F00000000000000000000F8079B
:1038F000FC0F3E1F1E1E1E3E1E3E1E1E3C1FF80FCE
:10390000F007F80FFC1E3E3E1F3C1F7C0F7C0F7C17
:103910001F3C3E3FFC1FF0070000000000000000BD
:103920000000F007F80F7C1E3E3C1E3C1F7C1F7CF5
:103930001F7C1F7C1F3C3F3EFF1FEF071F001E0028
:103940001E003E003C00F838F03FE01F0000000081
:103950000000000000000000000000000000000067
:103960000000E003E003E003E003000000000000CB
:103970000000000000000000E003E003E003E003BB
:103980000000000000000000000000000000000037
:10399000000000000000E003E003E003E00300009B
:1039A000000000000000000000000000E003E00351
:1039B000E003E003E001E001E001C0038003000058
:1039C0000000000000000000000003000F003F00A6
:1039D000FC00F003C00F003F00FE003FC00FF003EB
:1039E000FC003F000F00030000000000000000008A
:1039F00000000000000000000000000000000000C7
:103A0000000000000000FFFFFFFF000000000000BA
:103A1000FFFFFFFF000000000000000000000000AA
:103A20000000000000000000000000000000000096
:103A3000000000E000F8007E801FE007F8017E0033
:103A40001F007E00F801E007801F007E00F800E004
:103A500000000000000000000000F01FFC3F3E38A6
:103A60001F381F381E001E003C007800F000E001E7
:103A7000C003C003C007C007000000000000C0076B
:103A8000C007C00700000000000000000000F803AD
:103A9000FE0F1E1F0F3E7F3CFF78EF79C773C7F301
:103AA0008FF38FF38FF39FF39FF3FF73FF7BF77910
:103AB000003C1C1FFC0FF803000000000000000089
:103AC0000000000000000000E003E003F007F00742
:103AD000F007780F780F7C0E3C1E3C1E3E3CFE3FEC
:103AE000FF3F1F780F780FF007F007F0000000008D
:103AF000000000000000000000000000F83FFC3F54
:103B00003E3C1E3C1E3C1E3C3E3C7C3CF03FF83F95
:103B10007E3C1F3C1F3C0F3C0F3C1F3CFE3FF83FD0
:103B20000000000000000000000000000000000095
:103B3000FF01FF07871F003E003C007C00780078F3
:103B4000007800780078007C007C003E003F831FF6
:103B5000FF07FF010000000000000000000000005F
:103B600000000000F07FFC7F7E781F781F780F78C0
:103B70000F780F780F780F780F780F780F781F78FD
:103B80001E787E78F87FE07F0000000000000000D3
:103B90000000000000000000FF3FFF3F003E003E2D
:103BA000003E003E003E003EFE3FFE3F003E003E27
:103BB000003E003E003E003EFF3FFF3F0000000091
:103BC000000000000000000000000000FF1FFF1FB9
:103BD000001E001E001E001E001E001EFF1FFF1FF5
:103BE000001E001E001E001E001E001E001E001EE5
:103BF00000000000000000000000000000000000C5
:103C0000FE03FF0F871F003E007C007C007800F859
:103C100000F87FF87FF80F780F7C0F7C0F3E8F1F26
:103C2000FF0FFE0300000000000000000000000085
:103C3000000000001F7C1F7C1F7C1F7C1F7C1F7CE2
:103C40001F7C1F7CFF7FFF7F1F7C1F7C1F7C1F7CD6
:103C50001F7C1F7C1F7C1F7C0000000000000000F8
:103C60000000000000000000FF3FFF3FE003E00312
:103C7000E003E003E003E003E003E003E003E0032C
:103C8000E003E003E003E003FF3FFF3F000000002C
:103C9000000000000000000000000000FC1FFC1FEE
:103CA0007C007C007C007C007C007C007C007C0034
:103CB0007C007C007C0078007800F838F03FC03F42
:103CC00000000000000000000000000000000000F4
:103CD0001F3C1E3C3C3C783CF03CE03DE03FC03F9C
:103CE000803FC03FE03FF03DF03C783C7C3C3E3CB8
:103CF0001F3C0F3C0000000000000000000000001E
:103D000000000000003E003E003E003E003E003E3F
:103D1000003E003E003E003E003E003E003E003EB3
:103D2000003E003EFF3FFF3F00000000000000009B
:103D300000000000000000001FF81FFC1FFC3FFEF9
:103D40003FFE3FFE7FFF77FF77FFF7F7E7F7E7F3E9
:103D5000E7F3C7F307F007F007F007F000000000F3
:103D60000000000000000000000000000F7C0F7C3D
:103D70000F7E0F7F0F7F8F7F8F7FCF7FEF7BEF795E
:103D8000FF79FF78FF787F783F783F781F781F783A
:103D90000000000000000000000000000000000023
:103DA000F007FC1F3E3E1F7C0F780F780FF80FF8CE
:103DB0000FF80FF80FF80FF80F780F781F7C3E3EC2
:103DC000FC1FF007000000000000000000000000E1
:103DD00000000000FC3FFF3F1F3E0F3E0F3E0F3E26
:103DE0000F3E1F3E3F3EFC3FF03F003E003E003E88
:103DF000003E003E003E003E0000000000000000CB
:103E00000000000000000000F007FC1F3E3E1F7C89
:103E10000F780F780FF80FF80FF80FF80FF80FF86A
:103E20000F780F781F7C3E3EFC1FF8077C003F0098
:103E30000F0003000000000000000000F03FFC3F06
:103E40007E3C3E3C1E3C1E3C3E3C3C3CFC3CF03F31
:103E5000E03FF03DF83C7C3C3E3C1E3C1F3C0F3CB0
:103E60000000000000000000000000000000000052
:103E7000FC07FE1F0E3E003C003C003C003EC01F05
:103E8000F80FFE037F001F000F000F001F203E3CB5
:103E9000FC3FF01F000000000000000000000000D8
:103EA00000000000FFFFFFFFE003E003E003E0038A
:103EB000E003E003E003E003E003E003E003E003EA
:103EC000E003E003E003E003000000000000000066
:103ED00000000000000000000F7C0F7C0F7C0F7CB6
:103EE0000F7C0F7C0F7C0F7C0F7C0F7C0F7C0F7C7A
:103EF0000F7C1E3C1E3C3E3EFC1FF00700000000F5
:103F000000000000000000000000000007F007F0C3
:103F100007F80F780F7C1E3C1E3C1E3E3C1E3C1FCB
:103F2000781F780FF80FF007F007F007E003E003C1
:103F30000000000000000000000000000000000081
:103F400003E003F003F007F0E7F3E7F3E7F3E773C9
:103F5000F77BF77FFF7F7F7F7F7F7E7F7E3F3E3EC9
:103F60003E3E3E3E00000000000000000000000059
:103F70000000000007F80F7C1E3E3E3E3C1FF80F7D
:103F8000F007E007E003E003F007F80F7C0F7C1E6A
:103F90003E3C1F780F780FF000000000000000008A
:103FA000000000000000000007F807780F7C1E3CAE
:103FB0001E3E3C1F780FF80FF007E003E003E0031C
:103FC000E003E003E003E003E003E003000000009F
:103FD000000000000000000000000000FF7FFF7FE5
:103FE0000F001F003E007C00F800F000E001E0033D
:103FF000C007800F000F001E003E007CFF7FFF7F88
:1040000000000000000000000000FF07800780079C
:104010008007800780078007800780078007800768
:104020008007800780078007800780078007800758
:104030008007800780078007FF07FF0700000078E0
:104040000078003C003C001E001E000F000F80079F
:104050008007C003C003E001E001F000F000780039
:1040600078003C003C001E001E000F000F000700FF
:104070000000F07FF000F000F000F000F000F00031
:10408000F000F000F000F000F000F000F000F000B0
:10409000F000F000F000F000F000F000F000F000A0
:1040A000F07FF07F0000C000C001C001E003E0032A
:1040B000F007F0077807780F380F3C1E3C1E1E3CB7
:1040C0001E3C0F380F780778000000000000000049
:1040D00000000000000000000000000000000000E0
:1040E00000000000000000000000000000000000D0
:1040F00000000000000000000000000000000000C0
:1041000000000000FFFFFFFF000000000000F000C3
:10411000000000000000000000000000000000009F
:10412000000000000000000000000000000000008F
:10413000000000000000000000000000000000007F
:104140000000000000000000000000000000F80F68
:10415000FC3F7C3C3E003E003E00FE07FE1F3E3E14
:104160003E7C3E783E7C7E7CFF3FCF1F00000000FF
:10417000000000000000003C003C003C003C003C13
:10418000003CF83DFE3F3E3F1F3E0F3C0F3C0F3CC6
:104190000F3C0F3C0F3C1F3C1E3C3E3FFC3FF03BA6
:1041A000000000000000000000000000000000000F
:1041B000000000000000FE03FF0F871F003E003ECE
:1041C000003C007C007C007C003C003E003E871FE1
:1041D000FF0FFE03000000000000000000001F00B1
:1041E0001F001F001F001F001F00FF07FF1F3F3E93
:1041F0001F3C1F7C1F7C1F7C1F781F781F7C1F7C2F
:104200003F3C7F3EFF1FDF0F00000000000000006A
:104210000000000000000000000000000000F803A3
:10422000FC0F3E1F1E3E1F3C1F7CFF7FFF7F007C5C
:10423000007C003C003E071FFF0FFE030000000053
:10424000000000000000FF01E103C003C007C00739
:10425000C007FF7FFF7FC007C007C007C007C007B8
:10426000C007C007C007C007C007C007C007C00716
:10427000000000000000000000000000000000003E
:10428000000000000000EF07FF1F7F3E1F3C1F7C67
:104290001F7C1F781F781F781F7C1F7C3F3C7F3E50
:1042A000FF1FDF0F1E001E001E007C38F83F003C81
:1042B000003C003C003C003C003CFC3DFE3F9E3F7F
:1042C0001F3F1F3E1F3C1F3C1F3C1F3C1F3C1F3C11
:1042D0001F3C1F3C1F3C1F3C000000000000000072
:1042E0000000F001F0010000000000000000E07F8D
:1042F000E07FE001E001E001E001E001E001E00138
:10430000E001E001E001E001E001E0010000000067
:10431000000000000000F800F800000000000000AD
:104320000000F83FF83FF800F800F800F800F80047
:10433000F800F800F800F800F800F800F800F800BD
:10434000F800F800F000F071E07F003C003C003C19
:10435000003C003C003C1F3C3E3C7C3CF83CF03DBB
:10436000E03DC03FC03FE03FF03DF83C7C3C3E3C80
:104370001F3C1F3C00000000000000000000F07F18
:10438000F001F001F001F001F001F001F001F001A5
:10439000F001F001F001F001F001F001F001F00195
:1043A000F001F001F001F001000000000000000049
:1043B00000000000000000000000000000009EF768
:1043C000FFFFFFFFFFFFE7FBE7F9C7F1C7F1C7F109
:1043D000C7F1C7F1C7F1C7F1C7F1C7F1000000008D
:1043E00000000000000000000000000000000000CD
:1043F0000000FC3DFE3F9E3F1F3F1F3E1F3C1F3CF9
:104400001F3C1F3C1F3C1F3C1F3C1F3C1F3C1F3CD4
:10441000000000000000000000000000000000009C
:10442000000000000000F007FC1F3E3E1F3C1F7C08
:104430000F780F780F780F780F781F7C1F3C3E3E67
:10444000FC1FF0070000000000000000000000005A
:1044500000000000000000000000F83DFE3F3E3F6D
:104460001F3E0F3C0F3C0F3C0F3C0F3C0F3C1F3CD2
:104470001E3E3E3FFC3FF83F003C003C003C003C01
:10448000003C000000000000000000000000EE07FB
:10449000FE1F7E3E1E3C1E7C1E781E781E781E78F7
:1044A0001E781E7C3E7C7E3EFE1FDE0F1E001E0020
:1044B0001E001E001E0000000000000000000000A2
:1044C00000007F1FFF1FE71FC71F871F001F001F60
:1044D000001F001F001F001F001F001F001F001FE4
:1044E00000000000000000000000000000000000CC
:1044F000000000000000FC07FE1F0E1E003E003EF4
:10450000003FE01FFC07FE003E001E001E003E3C78
:10451000FC3FF01F00000000000000000000000051
:1045200000000000800780078007FF7FFF7F800773
:104530008007800780078007800780078007800743
:104540008007C007FF03FF0100000000000000001B
:1045500000000000000000000000000000001E3C01
:104560001E3C1E3C1E3C1E3C1E3C1E3C1E3C1E3C7B
:104570001E3C3E3C7E3CFE3EFE1FDE0F0000000067
:10458000000000000000000000000000000000002B
:10459000000007F00F780F781E3C1E3C1E3E3C1EAC
:1045A0003C1E780F780FF00FF007F007E003E003F0
:1045B00000000000000000000000000000000000FB
:1045C00000000000000003F0E3F1E3F3E7F3F7F38A
:1045D000F7F3F77F777F7F7F7F7F7F7F3E3E3E3E93
:1045E0003E3E3E3E000000000000000000000000D3
:1045F000000000000000000000000F7C1E3E3C3E5A
:104600003C1FF80FF007F007E003F007F807F80F7A
:104610007C1E3E3E1F3C1F78000000000000000092
:10462000000000000000000000000000000007F88B
:104630000F780F7C1E3C1E3C3C1E3C1E3C1F780F1E
:10464000F80FF007F007E003E003C003C003C00366
:104650008007800F007F00000000000000000000C5
:104660000000FF3FFF3F1F003E007C00F800F0010C
:10467000E003C007800F001F001E003CFF7FFF7F8C
:1046800000000000000000000000FE01E003C00385
:10469000C003C003C003E001E001E001C001C003AA
:1046A000803F803FC003C001E001E001E001C003A2
:1046B000C003C003C003E003FE017E000000C00190
:1046C000C001C001C001C001C001C001C001C001E2
:1046D000C001C001C001C001C001C001C001C001D2
:1046E000C001C001C001C001C001C001C001C001C2
:1046F0000000C03FE003E001E001E001E001C00193
:10470000C003C003C001E001FE00FE00E001C001E3
:10471000C003C003C001E001E001E001E001E003EB
:10472000C03F003F0000000000000000000000004B
:10473000000000000000000000000000073FC77FED
:10474000E773FFF17EF000000000000000000000B1
:10475000000000000000000000000000804700088A
:1047600000000020180000002801000898470008F9
:1047700018000020780B0000440100080000000031
:10478000101A00000E3400080024F400010000009C
:08479000100000000000000011
:04000005080000ED02
:00000001FF
